:400000000080002011000000690E0000690E000080B500AF00F032FF80B500AF294B12221A6003F09FFD284B181C04F069F8012003F0A8FD302003F0FFF9244B244A1A6040
:40004000244B8022D2051A60234B234A126802210A431A60214B224A1A60224B00221A60214B214A126808218A431A60FA23DB00181C03F0D7FA1D4B181C03F035FC1C4BAC
:40008000BC2292011A601B4B1B4A1A601B4BC82252011A60174B1A4A1A601A4B822212061A60194B8022D2021A60184B41221A60174B40221A60074B8022D2051A60BD46FE
:4000C00080BDC04630001040001BB70004010B40060000800C020B4078002E407C002E402D3E000064F02E406CF02E40DC050000040301400000014041FF00800003014007
:4001000040FF008008010B4000010B40180101400401014080B582B000AF72B6384B00221A60FB1D00221A7023E0FB1D1A78131C5B009B185B00334A9B183B603B681A785A
:40014000597809020A43997809040A43DB781B061343191C3B681A795B791B0213439BB2081C191C00F00EFFFB1D1A78FB1D01321A70FB1D1B78012BD7D9234B234A1A6071
:40018000234B992212041A60224B992212041A60214B992212041A60204A204B1B78DBB202210B43DBB213701D4A1D4B1B78DBB23C218B43DBB214210B43DBB21370174A06
:4001C000164B1B78DBB216210B43DBB21370154B22221A60144B154A1A60154B20221A60144B01221A60144B144A1A60144B3C221A60FFF711FF00F0D5FEBD4602B080BD52
:400200006CF02E40C068010000000240000099EE00500F4010500F4030500F4000700F4001700F4000000440080004402010DB00180004400001044008010440B46D0000BC
:400240001803044010B5064C2378002B07D1054B002B02D0044800E000BF0123237010BDB00F0020000000003864010008B5084B002B03D00748084900E000BF074803682B
:40028000002B00D108BD064B002BFBD09847F9E70000000038640100B40F0020A80B00200000000090B583B000AF62B602F0DAFEBC1D1B4B181C00F01DFF031C2380BB1D02
:4002C0001B88002B20D1174B181C03F09BF8164B181C03F097F8154B181C03F093F8144B181C03F08FF8134B181C03F08BF8124B181C03F087F804F0B7FB03F063FC03F0F7
:400300009BFD00F067FD04E00C4B181C03F07AF8FEE700F003FD00F013F804F0A5FBF8E7F10300003C6401007C640100BC640100006501001C6501003C65010058650100DB
:4003400090B583B000AF244B1B78032B04D0052B26D0022B09D03CE0204B1B78DBB2002B02D000F0A7FF34E033E01D4B1B781F2B02D000F0A5F912E01A4B1B78DBB2012286
:400380005340DBB2002B02D000F018FA07E0164B1B78DBB2012B02D000F0BCFC19E018E00E4B1B78DBB2002B0ED0BC1D0F4B181C00F090FF031C2380BB1D1B88002B07D177
:4003C000064B00221A7003E0002000F021FFFFE7C046BD4603B090BDB0210020D60F0020DF0F0020D70F0020C0210020D80F002080B586B000AF786039607B68522B00D928
:4004000034E17B689A009B4BD3181B689F463B687B617B691B78042B38D17B691B7A062B34D17B69DB6801331B78FF2B2ED17B69DB6802331B78312B28D17B69DB6803335C
:400440001B78012B22D17B69DB6804331B783B2B1CD17B69DB6805331B78042B16D1864B01221A707B695B68844A111C1A1C0623081C111C1A1C04F0B6FA7B695A787F4B54
:400480009A717F4B181C02F0BDFFF0E0EFE07A4B00221A707B4B00221A707B4B00221A707A4B181C02F0AEFFC04602F099FE011C774B1A6880231B02134001D0012300E021
:4004C0000023CB18002BF0D102F0DEFD02F0ACFE02F008FE02F0C6FDC9E03B683B613B695B685A1D6B4B101C191C102204F06CFA031E1CD13B695B6803331B789AB2664B50
:400500001A803B695B6804331B781B029AB2624B1B889BB213439BB29AB25F4B1A805A4B1B7802221343DAB2574B1A7027E03B695B685A1D594B101C191C102204F044FAFF
:40054000031E1CD13B695B6803331B789AB2544B1A803B695B6804331B781B029AB2504B1B889BB213439BB29AB24D4B1A80464B1B7804221343DAB2434B1A7077E076E081
:400580003B68FB60FB685B6803331B78292B21D1FB685B6802331B78022B1BD1FB685B681B789AB23F4B1A80FB685B6801331B781B029AB23B4B1B889BB213439BB29AB21D
:4005C000384B1A80304B1B7808221343DAB22E4B1A704CE04BE03B685B88162B04D83B685A88314B1A8002E02F4B17221A80264B1B7810221343DAB2234B1A7037E03B6833
:40060000181C00F0F9F832E03B68BB60BB685B681A88264B1A80BB685B685A88244B1A80194B1B7801221343DAB2174B1A701EE03B685B88162B04D83B685A881A4B1A8064
:4006400015E0194B17221A8011E00E4B01221A70184B181C02F0D6FE174B181C02F0D2FE05E0164B181C02F0CDFE00E0C046BD4606B080BD64660100D60F0020D80F0020B8
:40068000C0650100D70F0020DF0F0020F86501000802244098650100CC0F0020A8650100CE0F0020D00F0020AC0B0020D20F0020D40F0020106601002C660100486601009D
:4006C00080B500AF354B1B78012B1AD002DC002B05D05EE0072B32D00F2B4AD059E0304A304B117852781202114300220904090C120C12040A43101C19685A680FF0AEFE81
:4007000047E0294B1A88294B1A80294B1A88274B5A80234A254B117852781202114300220904090C120C12040A4319885B881B040B430021191C101C0FF074FE29E01D4B5A
:400740001B8801339AB21C4B1A80194B1A881A4B5A80134B18491A785B781B021A4300231204120C1B0C1B041343181C0FF044FE0FE00B4B1A785B781B021A4300231204AD
:40078000120C1B0C1B041343181C17210FF082FEC04604F069F9BD4680BDC046DF0F0020C4210020B8650100D20F00208C210020D40F0020CC0F00208821002080B500AF48
:4007C0000A4B1A880A4B1A810A4B09491A785B781B021A4300231204120C1B0C1B041343181C0FF0E9FEBD4680BDC046D00F0020B00B0020C421002080B586B000AF786068
:400800007B685B683B613B691B78303B432B59D89A002E4BD3181B689F4600237B610AE07B69181C00F05EF97B69181C00F050F87B6901337B617B69042BF1DD43E000F04F
:4008400009FB40E003F01CF83DE000237B6117E0022003F0FFFA7B69181C03F01FFB031C1A1C0E23FB181A807A690E23FB181B881BB2101C191C03F033FB7B6901337B61C7
:400880007B69032BE4DD1EE0002000F02BF900F0C7F818E0012000F025F900F0C1F812E0022000F01FF900F0BBF80CE0032000F019F900F0B5F806E0042000F013F900F051
:4008C000AFF800E0C046BD4606B080BDB067010080B590B000AF78600023BB630823FB1800221A6000225A6000229A600022DA6000221A6100225A6100229A610022DA61FE
:4009000000221A6200225A620823FB1826220D2199540823FB1827220A21995400F090FA031C7B630823FA18BB6BD2187B6B101C191C0A2200F076F9BB6B0B330822BA1805
:400940002C21D154BB6B0C33BB630023FB6350E03223FB1800221A803223FB1800221A80022003F077FAFB6B181C03F097FA031C99B22A4BFA6B5200D35A9BB29AB2322334
:40098000FB188A1A1A803223FB181A88FA231B029A42E1D8F96B214BFA6B5200D35A9BB29AB23223FB181B88D3189BB29BB21BB2081C191C03F0ACFA031C1A1C3023FB18B6
:4009C0001A800823FA18BB6BD2183023FB181B88101C191C042200F025F9BB6B05330822BA182C21D154BB6B0633BB63FB6B0133FB63FB6B032BABDD0823FA18BB6BD218C8
:400A00007B68101C191C002200F00CF90823FB18181C00F0BBF8BD4610B080BDFC31002080B58EB000AF00233B633B1D00221A6000225A6000229A600022DA6000221A6131
:400A400000225A6100229A610022DA6100221A6200225A623B1D26220D2199543B1D27220A21995400237B6333E02E23FB1800221A802E23FB1800221A80022003F0EAF9E3
:400A80007B6B181C03F00AFA031C99B2144B7A6B5200D35A9BB29AB22E23FB188A1A1A802E23FB181A88FA231B029A42E1D83A1D3B6BD2182E23FB181B88101C191C1E2259
:400AC00000F0FCF83B1D181C00F060F87B6B01337B637B6B032BC8DDBD460EB080BDC046FC31002080B582B000AF78607B68012B15D002DC002B05D038E0022B1CD0032B1D
:400B000027D033E0002003F063FA002003F086FA002003F0A9FA002003F0CCFA33E0012003F056FA002003F079FA002003F09CFA002003F0BFFA26E0002003F049FA01202A
:400B400003F06CFA002003F08FFA002003F0B2FA19E0002003F03CFA002003F05FFA012003F082FA002003F0A5FA0CE0002003F02FFA002003F052FA002003F075FA0120A7
:400B800003F098FAC046BD4602B080BD90B589B000AF78600023FB6136E01A23FB181D4A1A801D4B1A880C23FB181A810C23FB1814229A80FB697A68D2180C23FB181A6068
:400BC0001A23FC18154B0C22B9181A785B781B021A4300231204120C1B0C1B041343181C0FF0F4FC031C238003F03EFF1A23FB181B88002B03D00A4B1B78022BE0D003F0B5
:400C000033FFFB691433FB61FB69272BC5DDBD4609B090BDF7CDFFFFCE0F0020C4210020B021002090B587B000AFF860B9607A6001237B617B6801337B6038E07B68052BD2
:400C40000CD17B685A1E7B699A4207D17A687B69D31AFA68D3182E221A7025E07B680B2B0CD17B68DA1F7B699A4207D17A687B69D31AFA68D3182E221A7015E07A687B69C6
:400C8000D31AFA68D418BB68181C0A2103F074FD0B1CDBB23033DBB22370BB68181C0A2103F0E4FC031CBB607B6901337B617A697B689A42C2D9BD4607B090BD90B587B099
:400CC00000AFF860B9607A6001237B617B6801337B6018E07A687B69D31AFA68D418BB68181C0A2103F048FD0B1CDBB23033DBB22370BB68181C0A2103F0B8FC031CBB60BB
:400D00007B6901337B617A697B689A42E2D9BD4607B090BD80B500AFBD4680BD80B500AF204B1B78022B1FD0032B00D038E0012002F05CF91C4B1B685A1E1B4B1A601A4B14
:400D40001B68002B0FD1184B184A1A60184B1B7801225340DAB2164B1A70154B1B78181C02F01EF91CE01BE0012002F019F9114B1B685A1E0F4B1A600E4B1B68002B0ED126
:400D80000C4B0D4A1A600A4B1B7801225340DAB2074B1A70064B1B78181C02F027F9C046BD4680BDB0210020BC0B002030750000C00B0020C40B002050C3000080B500AF47
:400DC000034B1B685A1C024B1A60BD4680BDC046E00F002080B582B000AF01233B60164B00221A6002F094FD00237B601CE07B68181C02F03FFE031E08D17A680F4B101C99
:400E0000191C02F021FE00233B6010E07B68181C02F030FE021E094B9A4202D100233B6005E07B6801337B607B68042BDFD93B68181CBD4602B080BDE00F0020BD0D000063
:400E400080B500AF024B1B68181CBD4680BDC046E00F002080B500AF024B00221A60BD4680BDC046E00F002080B500AF03F080FD031C1B680C2B00D1FEE7FEE780B586B0E0
:400E800000AF224B7B61224B3B61204B7B6135E03B691B68FB603B695B68BB603B699B683B6000237B600CE0FB681A68BB681A60BB680433BB60FB680433FB607B6804339F
:400EC0007B607A683B689A42EED13B69DB683B6000237B6008E0BB6800221A60BB680433BB607B6804337B607A683B689A42F2D13B6910333B617B69013B7B617B69002BB4
:400F0000C6D103F03BFDFFF7CDF9FEE701000000446B010080B582B000AF154B144A126801218A431A6000237B600FE07B68032B04D8104B7A689200D35800E00E4B0F4A80
:400F4000796889008B507B6801337B607B682F2BECD9FFF7DFF80A4B00221A60044B044A126801210A431A60BD4602B080BDC0460000104000000000690E0000000000209B
:400F8000C000002080B582B000AF786039607A683B68101C00211A1C03F02EFDBD4602B080BDC04680B500AF0B4B03221A600B4B03221A600A4B802212061A60094B3C22A3
:400FC0001A60094B3C221A60084B00221A60012000F00EF8BD4680BD300030403000314000003A4000033A4040033A40000E3F4080B584B000AF021CFB1D1A700B4B1B68D2
:40100000FB60FB1D1B78002B05D0FB68802212061343FB6003E0FB685B005B08FB60034BFA681A60BD4604B080BDC04680033A4080B500AF194B00221A70194B00221A7058
:40104000184B00221A70184B5A88184B1A80164B9A88164B5A80144B9A79144B1A73124BDA79124B1A71114B0622DA810F4B06221A820E4B00225A820C4B64229A820B4BC8
:401080000022DA82094B012252421A83084B1E221A8000F00FF8BD4680BDC046D6210020C0210020D4210020C80B002094210020AE21002080B500AF0B4B1B88002B05D1DE
:4010C0000A4B181C00210C2203F096FC064BDB88002B05D1064B181C0021062203F08CFC01F0D2FBBD4680BDE00B0020C8210020B8210020B0B594B004AF78603E23FB18E2
:4011000000221A802823FA183A4B111C1A1C1423081C111C1A1C03F066FC374B1B78002B04D1FFF785FF344B01221A707B68002B55D0324B7A681A603E23FB181B88002B92
:4011400029D11023FB181C22BA185A601023FB182022BA181A601023FB1800221A812023FB181B221A802023FB181B225A802023FB1804221A711C23FB1800221A703E238E
:40118000FC181023FA180E23FB18101C191C03F047FD031C23803E23FB181B88002B22D13E23FC1816481749AE231A012823FD180523009300230193002302932B1C03F020
:4011C00085FC031C23803E23FB181B88002B0AD10D4B01221A700D4B08221A7003E03E23FB1801221A803E23FB181B88181CBD4610B0B0BDCC680100E40F002090210020D6
:40120000A9180000C8000020B0210020B121002090B585B000AF021CFB1D1A70FB1D1B78022B04D90E23FB1801221A8035E0FB1D1B78002B09D11C4B0A221A811A4B3022D9
:401240005A80194B30229A800EE0FB1D1B78012B0AD1154B96221A81134B802212015A80114BE122D2009A80104BFA1D12781A700E23FC180C4B181C0EF046FB031C2380E2
:401280000E23FB181B88002B07D1094B1B78DBB204221343DAB2064B1A700E23FB181B88181CBD4605B090BDC80B0020D4210020D621002080B500AF0EF052FB044B1B789D
:4012C000DBB208221343DAB2014B1A70BD4680BDD621002090B585B000AF7860294B1B78052B05D00E23FB180422FF321A8041E07B68002B04D10E23FB1801221A8039E0C8
:401300000D23FB1800221A7012E00D23FB181B780D22BA1812787968895C1B4AD3180A1C5A710D23FB181A780D23FB1801321A700D23FB181B78052BE7D97B689A79124B76
:40134000DA720E23FC18104B181C0EF083FA031C23800E23FB181B88002B0BD1094B04221A700A4B1B88002B04D0084B1B88181C0BF0A4F90E23FB181B88181CBD4605B092
:4013800090BDC046B021002094210020AE21002090B583B000AF104B1B78042B04D0BB1D0422FF321A8011E0BC1D0EF045FA031C23800A4B1B88002B01D00BF099F9BB1D22
:4013C0001B88002B02D1044B05221A70BB1D1B88181CBD4603B090BDB0210020AE21002080B582B000AF78607B681B789AB27B6801331B789BB21B029BB213439BB2181CD2
:40140000BD4602B080BDC04680B582B000AF78607B68DB880D4A934214D10D4B5B88002B08D17B689A880A4B5A807B689A78084B1A7007E0074B1B687A68911D86225200E4
:40144000101C9847BD4602B080BDC046052A0000B82100209021002080B582B000AF78607B689B880B4A934210D10B4B9B88002B04D17B685A88084B9A8007E0074B1B680A
:401480007A68111D86225200101C9847BD4602B080BDC04602290000B82100209021002080B582B000AF78600C4B5A887B689B899A420FD10A4B1B68832251007A68081C6C
:4014C000111C9847074B1B78DBB201229343DAB2044B1A70BD4602B080BDC046B821002090210020D621002080B582B000AF7860BD4602B080BDC04680B582B000AF786063
:40150000BD4602B080BDC04680B582B000AF7860BD4602B080BDC04690B589B000AF7860394B1B78022B6BD1384B1B88002B67D00C23F918354B02229B180422081C191CAA
:4015400003F051FA7B685A687B681B891C1C0C23FB180433181C111C221C03F044FA0C23FB18181C01F004FA284B1B8801339AB20C23FB181A80264B1B78191C254A0B1CDA
:401580005B005B185B00D3185A880C23FB185A800C23FB181A880C23FB185B889A4221D81D4B0C22B9181A785B781B021A4300231204120C1B0C1B041343181C0EF07AFF57
:4015C000031E12D0154B1B6884225200101C00219847134B1B78DBB202229343DAB2104B1A7002E0012000F0E9FB0D4B1B78DBB201229343DAB20A4B1A70044B00221A803A
:40160000BD4609B090BDC046B1210020E80F0020D5210020E00B0020C421002090210020D621002090B589B000AF7860394B1B78022B6BD1384B1B88002B67D00C23F91837
:40164000354B02229B180422081C191C03F0CBF97B685A687B681B891C1C0C23FB180433181C111C221C03F0BEF90C23FB18181C01F07EF9284B1B8801339AB20C23FB1801
:401680001A80264B1B78191C254A0B1C5B005B185B00D3185A880C23FB185A800C23FB181A880C23FB185B889A4221D81D4B0C22B9181A785B781B021A4300231204120C34
:4016C0001B0C1B041343181C0EF0F4FE031E12D0154B1B6884225200101C00219847134B1B78DBB202229343DAB2104B1A7002E0012000F063FB0D4B1B78DBB20122934375
:40170000DAB20A4B1A70044B00221A80BD4609B090BDC046B1210020E80F0020D5210020E00B0020C421002090210020D621002080B500AF094B00225A70084B00221A70EA
:40174000074B1B78052B03D1054B07221A7002E0034B08221A70BD4680BDC046C4210020B121002080B582B000AF78607B681B78032B3ED1254B1B78DBB21A1C022313407D
:4017800037D0234B1B78022B10D002DC012B05D024E0032B12D0042B18D01FE01D4B1B680822FF32101C0021984717E0194B1B6884225200101C002198470FE0154B1B68C5
:4017C0000A22FF32101C0021984707E0114B1B6885225200101C00219847C0460B4B1B78DBB202229343DAB2084B1A70084B00221A707B681B78042B05D1074B1B78042B08
:4018000001D1FFF7C5FDBD4602B080BDD6210020B121002090210020B021002080B500AFBD4680BD80B584B000AF78600E23FB1800221A707B689B79002B1CD10F23FB1809
:4018400000221A7012E00F23FB181B787A68D35C002B04D00E23FB1801221A700BE00F23FB181A780F23FB1801321A700F23FB181B78052BE7D90E23FB181B78181CBD4657
:4018800004B080BD80B582B000AF021CBB1D1A80BD4602B080BDC04680B582B000AF7860BD4602B080BDC04680B586B000AF021C3960FB1D1A70C14B1B78DBB2012213439B
:4018C000DAB2BE4B1A70FB1D1B78712B00D95AE19A00BB4BD3181B689F460C23FB1807221A700C23FB1800225A700C23FB18181C05F042F80C23FB1807221A700C23FB187C
:4019000001225A700C23FB18181C05F035F8AD4B1B68181CFFF786FF031E05D0A94B1B68181C03F0A5F803E0A74B181C03F0A0F803200DF095FE0823FB183F221A7008232C
:40194000FB1800225A700823FB18181C0DF0A6FE9E4B05221A7017E13B68181CFFF702FF12E13B681A789A4B1A700DE13B683B613B691B78002B18D13B695B78002B0BD168
:40198000944B0022DA80934B00229A80914B924A1A603B698F4A5A60884B1B78DBB201229343DAB2854B1A70EEE0EDE0834B1B78DBB21A1C202313400ED1884B1B78102BA2
:4019C00002D1864B0522DA70854B1A78834B101C191C0DF07FFCD7E0D6E03B68181CFFF75BFFD1E03B68181CFFF756FF7D4B1B88002B01D00AF07CFE744B02221A70C3E077
:401A0000724B05221A70BFE0704B1B78022B40D06A4B1B78DBB21A1C0123134039D0674B1B78DBB21A1C042313400BD0674B03221A70624B1B78DBB204229343DAB25F4BC6
:401A40001A7026E05D4B1B78DBB21A1C082313400BD05E4B05221A70584B1B78DBB208229343DAB2554B1A7013E0584B1B78032B0FD1564B05221A705B4B1B78002B08D1E6
:401A80000120FFF7C5FB031E03D1504B03221A707AE079E03B681B88181CFFF7F3FE73E04F4A3B68111C1A1C0223081C111C1A1C02F099FF464B00221A704C4B00221A7054
:401AC000FFF7ACFE60E0FFF733FE5DE03B685B88162B05D81623FB183A6852881A8003E01623FB1817221A803B681622BA1811881A8800231204120C1B0C1B041343181C8B
:401B00000FF026F840E03B68181C00F073F83BE03B68181C00F06EFA36E000F04FFE33E03B68181C00F0FAFC2EE03B68181C00F095FE29E03B68181CFFF7DEFC24E03B680A
:401B4000181CFFF7ADFC3B68181CFFF7DDFC1B4B1B78DBB21A1C0123134004D13B6818680EF042FC10E00FE03B68181CFFF7D4FC0AE03B68181CFFF755FD05E03B68181C44
:401B8000FFF7B2FC00E0C0460C4B1B78DBB21A1C112313400FD0094B1B78DBB201229343DAB2064B1A70124B1B68FA1D11783A68081C111C9847BD4606B080BDD621002055
:401BC000E0680100DC0B0020D40B0020B0210020C021002000100020A80B0020F40B0020C4210020AE210020D4210020B12100209021002080B586B000AF78600023FB6046
:401C0000694B1B78012B00D0CAE0684B1B78DBB21A1C0223134000D1C2E00A23FB187A6812891A800A23FB181B88062B05D00A23FB181B88142B00D0ABE00823FB187A68E6
:401C400052891A801423FB1800221A808FE07B685A681423FB181B88D318FB601323FB1800221A70FB681A88514B1B889A4200D273E0FB681A884E4B5B889A4200D96CE0E6
:401C80000A23FB181B88062B63D11623FB1800221A8053E01623FB181A884649131C5B009B185B00CB189A88FB689B889A423ED11623FB181A883F49131C5B009B185B0008
:401CC0005B5A002B13D11623FB181A883949131C5B009B185B00FA68CB18111C0422181C02F081FE1323FB1801221A701FE01623FB181B88012B0ED81623FB181B885A1C80
:401D00002C49131C5B009B185B00CB189A88FB689B889A420BD0284B1B68FA68111D0C22FF32101C98471323FB1801221A701623FB181A881623FB1801321A801623FB181B
:401D40001B88022B09D81323FB181B78002BA1D003E0FB68181C00F00BFE1423FB181422B9180A22BA18098812888A181A801423FA180823FB1812881B889A4200D266E752
:401D80000A4B1B78DBB201229343DAB2074B1A7006E0094B1B680822FF32101C00219847BD4606B080BDC046B1210020D6210020B4210020E00B00209021002080B582B0CC
:401DC00000AF021CFB1D1A70FB1D1B78002B06D0334B1B780133DAB2314B1A7005E0304B00221A702F4B00221A8005E02C4B1B780133DAB22A4B1A70294B1B78022B19D8DC
:401E0000274B1B78191C284A0B1C5B005B185B009A5A264B1B889A42E8D3214B1B78191C214A0B1C5B005B185B009A5A1F4B5B889A42DBD81A4B1B78022B28D8184B1B782D
:401E40001A1C131C5B009B185B00174A9918184B1A785B781B021A4300231204120C1B0C1B041343181C0EF025FB031E15D0114B1B6884225200101C002198470E4B1B7806
:401E8000DBB202229343DAB20B4B1A7005E00B4B03221A70002000F08BFABD4602B080BDD5210020E80F0020E00B0020B4210020C421002090210020D6210020B1210020B2
:401EC00080B582B000AF78607B68DB88434A934238D0424A934207DCA822920193420DD03F4A93421CD075E03E4A93424ED03D4A934239DB3C4A93425AD06BE03B4B1B886E
:401F0000002B04D17B689A88384B1A8062E0384B1B687A68911D86225200101C984759E0324B5B88002B04D17B689A882F4B5A8050E02F4B1B687A68911D86225200101CCD
:401F4000984747E0294B9B88002B04D17B689A88264B9A803EE0264B1B687A68911D86225200101C984735E0204BDB88002B04D17B689A881D4BDA802CE01D4B1B687A680A
:401F8000911D86225200101C984723E0174B1B89002B04D17B689A88144B1A811AE0144B1B687A68911D86225200101C984711E00E4B5B89002B04D17B689A880B4B5A8191
:401FC00007E00B4B1B687A68911D86225200101C9847C046BD4602B080BDC046022A0000012A0000042A0000A62A0000C82100209021002090B593B000AF7860D14B1B78A1
:40200000DBB21A1C0223134000D1CBE13E23FB187A6812891A803C23FB187A6852891A807B685B683B64C84B1B78032B00D0C2E04623FB1800221A80B3E03B6C181CFFF76D
:40204000CFF9031C1A1C2423FB181A803B6C02333B643B6C1A782423FB189A703B6C01333B643B6C181CFFF7BBF9031C1A1C2423FB189A803B6C02333B643E23FB181B88DD
:40208000152B34D12423FB1802229A752423FB180622396C9B181022181C02F0A4FC3B6C10333B64A94B1B78191CA94A0B1C5B005B185B00D3189B881A1EA64B9A4214D0FD
:4020C000A24B1B78012B0FD9A04B1B78022B0BD89E4B1B789BB2023B9AB22423FB18101C191C00F0ADFC01E000E0C04647E03E23FB181B88072B42D12423FB1801229A7542
:402100003B6C181CFFF76CF9031C1A1C2423FB18DA803B6C02333B648C4B1B78191C8C4A0B1C5B005B185B00D3189B88C0225201934203D0884A934206D00BE02423FB1873
:40214000181CFFF7BDFE1AE02423FB18181CFFF75BF914E07D4B1B78012B0FD97B4B1B78022B0BD8794B1B789BB2023B9AB22423FB18101C191C00F063FCFFE7C046714BFD
:402180001B78DBB201229343DAB26E4B1A704623FB184622B9183E22BA18098812888A181A804623FA183C23FB1812881B889A4200D242E7F6E0644B1B78022B00D0F1E002
:4021C0004623FB1800221A80E3E03B6C181CFFF707F9031C1A1C0C23FB181A803B6C02333B643B6C181CFFF7FBF8031C1A1C0C23FB185A803B6C02333B643B6C181CFFF7E6
:40220000EFF8031C1A1C0C23FB189A803B6C02333B643E23FB181B88062B30D10C23FB1802229A750EF0C2F90C23FB1859884B4B1A785B781B021A4300231204120C1B0CFE
:402240001B041343181C0EF053F9031E07D1444B0C22BA1813CA13C313CA13C387E0414B1B6884225200101C00219847354B1B78DBB202229343DAB2324B1A7077E03E23FE
:40228000FB181B88082B00D071E00C23FB1801229A753B6C181CFFF7A3F8031C1A1C0C23FB18DA803B6C02333B644423FB1800221A8033E04423FB181A882549131C5B006B
:4022C0009B185B00CB189A880C23FB18DB889A421DD14423FB181A881D49131C5B009B185B005B5A002B12D14423FB181A881849131C5B009B185B000C22BA180220C91867
:4023000013180422081C191C02F06DFB0BE04423FB181A884423FB1801321A804423FB181B88022BC6D9094B1B78191C084A0B1C5B005B185B00D3189B881A1E0A4B9A422D
:4023400014D014E0D6210020B1210020D5210020E00B0020FEFF000001180000C4210020E80F00209021002012180000C0460F4B1B78DBB201229343DAB20C4B1A704623DF
:40238000FB184622B9183E22BA18098812888A181A804623FA183C23FB1812881B889A4200D212E7BD4613B090BDC046D621002080B582B000AF021CFB1D1A70FB1D1B78B6
:4023C000002B06D0354B1B780133DAB2334B1A7002E0324B00221A7005E0304B1B780133DAB22E4B1A702D4B1B78022B19D82B4B1B78191C2A4A0B1C5B005B185B009A5A21
:40240000284B1B889A42E8D3244B1B78191C244A0B1C5B005B185B009A5A224B5B889A42DBD81E4B1B78022B2FD81C4B1B78181C1D491B4A031C5B001B185B0008784978B5
:402440000902084300210004000C090C09040143985AD3185B881B04034300221A1C081C111C0DF0DFFF031E15D0104B1B680A22FF32101C002198470D4B1B78DBB20222BD
:402480009343DAB20A4B1A7005E00A4B04221A70002000F0E5F8BD4602B080BDD5210020E00B0020B4210020C421002090210020D6210020B121002080B582B000AF3B1CB0
:4024C00000221A803B1C00225A80114B1B78002B09D1104B5B8801339AB23B1C1A800E4B1A893B1C5A803B1D3A1C12681A603A1D002311880904090C1B0C1B040B435288B8
:4025000012041B041B0C1343181CBD4602B080BDD5210020B8210020E00B002080B58AB000AF78600823FB1800225A80494B1B78042B00D08BE0484B1B78DBB21A1C0223DA
:40254000134000D183E01E23FB187A6812891A807B681A7B0823FB181A750823FB187A6812881A800823FB181B7D012B04D12623FB1804221A8003E02623FB1812221A80D0
:402580007B685B683B622423FB1800221A804EE03B6A181CFEF724FF031C1A1C0823FB185A803B6A02333B620823FB181B7D022B15D10823FB183A6A0433111C1022181C2A
:4025C00002F011FA3B6A10333B62244B1B78012B23D10823FB18181C00F0F8FB1DE03B6A181CFEF7FDFE031C1A1C0823FB189A803B6A02333B62194B1B78002B04D10823D6
:40260000FB18181CFEF728FF144B1B78012B04D10823FB18181C00F0D9FB2423FB182422B9182622BA18098812888A181A802423FA181E23FB1812881B889A42A8D3064B8A
:402640001B78DBB201229343DAB2034B1A70BD460AB080BDB1210020D6210020D521002080B584B000AF021CFB1D1A700C23FB1800221A800C23FB1800225A80494B1B7889
:40268000012B17D0FB1D1B78002B0DD0454B1B780133DAB2434B1A70424B1B78012B09D1FB1D00221A7005E03E4B00221A70FB1D01221A703B4B1B78012B0CD1FB1D1B78C3
:4026C000181C00F0C1FA031C1A1C0C23FB181A60FB1D01221A70334B1B78012B06D0FFF7EBFE031C1A1C0C23FB181A600C23FB181A882D4B1B889A4215D90C23FB181A8875
:40270000294B5B889A420ED80C23FB185A88264B1B889A4207D30C23FB181A880C23FB185B889A4203D91F4B1B78012BA6D91D4B1B78012B21D81D4B0C22B9181A785B783D
:402740001B021A4300231204120C1B0C1B041343181C0DF051FE031E21D0154B1B6885225200101C00219847124B1B78DBB202229343DAB20F4B1A7011E00F4B05221A706F
:402780000B4B1B681222FF32101C00219847094B1B78DBB202229343DAB2064B1A70BD4604B080BDD5210020B4210020C421002090210020D6210020B121002080B500AF18
:4027C000244B1B78DBB21A1C022313403FD0224B1B78022B17D002DC012B05D037E0032B1DD0042B27D032E01B4B02221A700020FFF7E4FA174B1B78DBB201229343DAB221
:40280000144B1A7023E00120FFF7D8FA114B1B78DBB201229343DAB20E4B1A7017E00120FFF7C6FD0B4B1B78DBB201229343DAB2084B1A700BE00120FFF712FF054B1B7840
:40284000DBB201229343DAB2024B1A70C046BD4680BDC046D6210020B121002080B582B000AF7860074B1B78DBB21A1C0223134005D07B689B790A2B01D1FFF79FFFBD46A2
:4028800002B080BDD621002080B582B000AFBB1D00221A8060E0BB1D1B889A1C3249131C5B009B185B005B5A002B50D13B1D00221A8040E0BB1D1B882C4A1B01D31808337C
:4028C0005A683B1D1B881B01D31800221A80BB1C00221A8019E0BB1D1B88244A1B01D31808335A683B1D1B881B01D318D968BB1C1A88131C5B009B189B00CB1800221A80AC
:40290000BB1C1A88BB1C01321A80BB1D1B88174A1B01D31808335A683B1D1B881B01D3189B7A9BB2BA1C12889A42D4D33B1D1A883B1D01321A80BB1D1B880C4A1B01D3184C
:4029400008335B789BB23A1D12889A42B2D3BB1D1A88BB1D01321A80BB1D1B88002B9AD0BD4602B080BDC046E00B0020180C002080B584B000AF78600D23FB1800221A7055
:402980000E23FB1800221A8046E00E23FB181B88284A1B01D31808331B78022B35D10E23FB181B88234A1B01D3185A687B680433101C191C102202F007F8031E25D10E238D
:4029C000FB181B889A1C1C49131C5B009B185B005B5A002B19D10E23FB181B889A1C1649131C5B009B185B007A68CB18111C0422181C01F0F8FF114B1B780133DAB20F4BD3
:402A00001A700D23FB1801221A700E23FB181A880E23FB1801321A800E23FB181B88002B04D10D23FB181B78002BAED0BD4604B080BDC046180C0020E00B0020D521002060
:402A400080B584B000AF021C3960BB1D1A800D23FB1800221A70774B1B68002B0FD0764B1B88BA1D12889A4206D1724B1B683A681288013A92B21A806E4B00221A600E2334
:402A8000FB1800221A80ADE00C23FB1800221A703B689B7D022B28D1BB1D1B88674A1B01D31808335A680E23FB181B881B01D3181B7A022B19D1BB1D1B88604A1B01D318F5
:402AC00008335A680E23FB181B881B01D3185A683B680633101C191C102201F075FF031E03D10C23FB1801221A703B689B7D012B28D1BB1D1B88514A1B01D31808335A6877
:402B00000E23FB181B881B01D3181B7A012B19D1BB1D1B88494A1B01D31808335A680E23FB181B881B01D3185A683B680633101C191C022201F048FF031E03D10C23FB186A
:402B400001221A700C23FB181B78012B43D1BB1D1B883A4A1B01D31808335A680E23FB181B881B01D3181B88002B34D1BB1D1B88324A1B01D31808335A680E23FB181B88ED
:402B80001B01D3183A6892881A80BB1D1B882B4A1B01D31808335A680E23FB181B881B01D3183A6892785A72BB1D1B88234A1B01D31808335A680E23FB181B881B01D31884
:402BC0009A1C1C4B1A601C4BBA1D12881A800D23FB1801221A700E23FB181A880E23FB1801321A80BB1D1B88144A1B01D31808335B789BB20E22BA1812889A4205D20D232B
:402C0000FB181B78002B00D13EE70A4B1B68002B0CD0084B1A680A4B1B78181C0949031C5B001B185B00CB185B881380BD4604B080BDC0460C10002010100020180C002090
:402C4000D5210020E00B002080B584B000AF021CFB1D1A700823FB1800221A800823FB1800225A80FB1D1B78002B2DD0524B1B880133524A1288524912018A180832527856
:402C8000934206D24C4B1B8801339AB24A4B1A8023E04A4B1B88013309D1484B1B8801339AB2464B1A80444B00221A8015E0454B1B780133DAB2434B1A703F4B1B880133B8
:402CC0009AB23D4B1A8008E03C4B00221A803A4B00221A80FB1D01221A70384B1B88384A1B01D31808335B789AB2334B1B889A421FD9324B1B88324A1B01D31808335A6897
:402D00002D4B1B881B01D3181B8801339AB20823FB181A80294B1B88294A1B01D31808335A68254B1B881B01D3185A880823FB185A800823FB181A88234B1B889A4215D919
:402D40000823FB181A88204B5B889A420ED80823FB185A881C4B1B889A4207D30823FB181A880823FB185B889A420CD9134B1B88134A1B01D31808335B789AB20E4B1B8806
:402D80009A4200D96EE70C23FB180822BA1812681A600C23FA18002311880904090C1B0C1B040B43528812041B041B0C1343181CBD4604B080BDC0460A10002008100020F8
:402DC000180C0020D5210020B421002080B584B000AF78600E23FB1800221A700F23FB1800221A70BBE00D23FB1800221A707B681B7D022B38D1674B1B88674A1B01D3186B
:402E000008335A68654B1B881B01D318D9680F23FB181A78131C5B009B189B00CB181B7A022B21D15B4B1B885B4A1B01D31808335A685A4B1B881B01D318D9680F23FB18ED
:402E40001A78131C5B009B189B00CB185A687B680433101C191C102201F0B6FD031E03D10D23FB1801221A707B681B7D012B38D1484B1B88484A1B01D31808335A68474BFF
:402E80001B881B01D318D9680F23FB181A78131C5B009B189B00CB181B7A012B21D13D4B1B883D4A1B01D31808335A683B4B1B881B01D318D9680F23FB181A78131C5B005A
:402EC0009B189B00CB185A687B680433101C191C022201F079FD031E03D10D23FB1801221A700D23FB181B78012B31D1294B1B88294A1B01D31808335A68284B1B881B0130
:402F0000D318D9680F23FB181A78131C5B009B189B00CB181B88002B1AD11E4B1B881E4A1B01D31808335A681C4B1B881B01D318D9680F23FB181A78131C5B009B189B00A1
:402F4000CB187A6852881A800E23FB1801221A700F23FB181A780F23FB1801321A700D4B1B880D4A1B01D31808335A680B4B1B881B01D3189B7A0F22BA1812789A4205D2A3
:402F80000E23FB181B78002B00D12CE7BD4604B080BDC04608100020180C00200A10002080B584B000AF021CFB1D1A700E4B1B68DAB20F23FB1802218A431A70FB1D1B78D1
:402FC000DB18DBB202221340D9B20F23FB180F22BA1812780A431A70034B0F22BA1812781A60BD4604B080BD0000044080B584B000AF021CFB1D1A700D4B1B68DAB20F23A8
:40300000FB1801218A431A70FB1D1B7801221340D9B20F23FB180F22BA1812780A431A70034B0F22BA1812781A60BD4604B080BD0001044080B500AF00F028F9BD4680BDEC
:4030400080B500AF064B064A1268802109060A431A6000F033F800F039F8BD4680BDC0460000244080B500AF064B1B78002B04D1FFF7E0FF034B01221A70FFF7E1FFBD4683
:4030800080BDC0461410002080B500AF092000F0C5FB00F021F8074B064A1268520052081A60054B00221A60092000F0CBFBBD4680BDC04600002440880F244080B500AF2D
:4030C000092000F097FBBD4680BDC04680B500AF00F062F9BD4680BD80B500AF00F076F9BD4680BD80B500AF092000F097FB0E4B1A680E4B1A600E4B00221A700D4B0D4AFC
:403100001268802149020A431A600A4B094A126809490A401A60094B094A1A60092000F069FBBD4680BDC046E0210020E8310020E531002004032440FFFFFEFFC00F24401D
:40314000ED0F000080B584B000AF78601D4B1A681D4B1B689A4209D11C4B1B681F221340082B03D01A4B7A681A6028E0154B1B680133FB60FA6880231B019A4201D1002327
:40318000FB60C046104B1B68FA689A42FAD0114B02221A607B68D9B20F4AFB68D3180A1C1A70084BFA681A600C4B1B680222134005D10A4B094A126802210A431A60BD46A4
:4031C00004B080BDDC210020D82100200802244040022440800F2440E4210020880F244080B582B000AF0E4B1B683B600D4B1A683B689A4205D30B4B1A683B68D31A7B6080
:4032000008E0084B1A683B68D31A80221201944663447B607B68181CBD4602B080BDC046D8210020DC21002080B500AF092000F0F5FA0F4B1A680F4B1A600F4B0E4A126823
:4032400002218A431A600D4B0C4A1268802149020A431A60094B094A126809490A401A60084B094A1A60092000F0C4FABD4680BDD8210020DC210020880F24400402244000
:40328000FFFFFEFF800F2440F307000080B500AF284B294A1A60294B00221A60284B01221A60284B284A1A60284B07221A60284B00221A60274B01221A60274B224A1A60D7
:4032C000264B00221A60264B04221A60092000F0A5FA0920032100F039FA224B0920191C00F00EFA204B00221A60204B00221A601F4B00221A601F4B00221A601E4B04221C
:403300001A601E4B00221A601C4B1B689AB21C4B1A801C4B00221A601B4B00221A601B4B00221A701A4B00221A601A4B00221A60BD4680BD000024400F0000024000244065
:4033400048002440000324400700008004032440100324404400244000022440040224405000244021410000880E2440C80E2440480F2440080F2440C80F2440880F2440A3
:4033800016100020E8310020E0210020E5310020DC210020D821002080B500AF074B074A126807490A40902109040A431A60054B054A12881A60BD4680BDC04600000240A6
:4033C000FFFF0FFF880F24401610002080B500AF084B084A126808490A401A60074B1B689AB2E423DB0013409AB2054B1A80BD4680BDC04600000240FFFF0FFF880F24404D
:403400001610002080B584B000AF78600023FB6009E07A68FB68D3181B78181CFFF792FEFB680133FB607A68FB68D3181B78002BEFD1BD4604B080BD90B585B000AF7860DD
:403440000C23FC1800F065FE031C23707B68022B00D8B4E07B68302B00D9B0E05E4B1B78DBB21A1E7B689A420AD35C4A0F23FB1812781A705A4A0E23FB1812781A703FE02A
:40348000584B1B78DBB21A1E7B689A420AD3564A0F23FB1812781A70544A0E23FB1812781A702DE0524B1B78DBB21A1E7B689A420AD3504A0F23FB1812781A704E4A0E232C
:4034C000FB1812781A701BE04C4B1B78DBB21A1E7B689A420AD34A4A0F23FB1812781A70484A0E23FB1812781A7009E0464A0F23FB1812781A70454A0E23FB1812781A708F
:403500007B68DA1E0B23FB1841498A5C1A700B23FB181B782F2B0DD97B682A2B0AD93D4B19221A60052000F0EBFD0D23FB1819221A7007E0374B1B68DAB20D23FB183F21E9
:403540000A401A700B23FA180D23FB1812781B789A4208D22F4B7A68033A2D498A5C1A60052000F0CDFD7B68284A9A180A23FB1812781A70284B0A22BA1812781A60274B91
:403580000F22BA1812781A60254B0E22BA1812781A60052000F0A8F90B23FA180D23FB1812781B789A4209D91A4B7A68033A18498A5C1A60052000F0A3FD03E002E000209B
:4035C00000F054F90C23FB181B78181C00F0A5FDBD4605B090BDC04640F3FF0F41F3FF0F42F3FF0F43F3FF0F44F3FF0F45F3FF0F46F3FF0F47F3FF0F48F3FF0F49F3FF0F31
:403600004AF3FF0F4BF3FF0F4CF3FF0F4DF3FF0FD86A01002CFF0B4028FF0B401CFF0B4020FF0B4080B584B000AF78600023FB60154B154A126801210A431A60134B144A11
:403640001A60144B134A1268802109020A431A607B68002B12D01023FB600CE0012000F043F900F019F8031E02D00023FB6005E07B68013B7B607B68002BEFD1FB68181CBA
:40368000BD4604B080BDC04660F02E4078002E400220000010002E4080B582B000AF054B1B68012213407B607B68181CBD4602B080BDC0460C002E4080B584B000AF021CD3
:4036C0003960FB1D1A7080239B05FB60FB1D1B780F2B02D9002000F0C9F8FB1D1B789B00FA68D3181B68BB60FB1D1B789B00FA68D3183A681A60BB68181CBD4604B080BD35
:4037000080B584B000AF021C3960FB1D1A7080239B05FB60FB1D1B781F2B02D9002000F0A5F8FB1D1B7810339B00FA68D3181B68BB60FB1D1B7810339B00FA68D3183A6811
:403740001A60BB68181CBD4604B080BD90B587B000AF021CFB1D1A70BB1D0A1C1A70BB1D1B78032B02D9002000F080F8FB1D1B781F2B02D9002000F079F8FB1D1B780322F4
:403780001340DB0006337B611323FC1800F0C1FC031C2370FB1D1B789B08DBB29B00144A944663441B68FB607B6903229A40131CDA43FB681340FB60BB1D1A787B699A4082
:4037C000131CFA681343FB60FB1D1B789B08DBB29B00074A94466344FA681A601323FB181B78181C00F099FCBD4607B090BDC04600E400E080B582B000AF021CFB1D1A7027
:40380000054BFA1D12781F210A40012191400A1C1A60BD4602B080BD00E100E080B582B000AF021CFB1D1A70054BFA1D12781F210A40012191400A1C1A60BD4602B080BDF1
:4038400080E100E080B582B000AF021CFB1D1A70054BFA1D12781F210A40012191400A1C1A60BD4602B080BD80E200E080B582B000AF021CFB1D1A7001BEBD4602B080BD68
:4038800080B500AF044B044A12681204120C03490A431A60BD4680BD0CED00E00400FA0580B582B000AF786009E00C4B1B68181C00F026FC7B680A4A944663447B607A683E
:4038C00080231B029A42F0D8064B1B687A685343181C00F015FCBD4602B080BD340C00200080FFFF2C0C002080B582B000AF021CBB1D1A80BB1D1B88044A12785343181CF8
:4039000000F0FEFBBD4602B080BDC046300C002080B500AF064B1B68002B04D100F00AF8034B01221A6000F037F8BD4680BDC0463010002080B582B000AF00237B6007E0F5
:40394000124B7A6892000021D1507B6801337B607B68042BF4D90E4B0F20191CFFF7ACFE012000F041F80B4B1B68181CFA23990000F07CFE031C181C00F028F800F05AF8EA
:403980000F20FFF737FFBD4602B080BD1C100020913A0000280C002080B500AF00F00AF8034B034A126801210A431A60BD4680BD10E000E080B500AF034B034A126802214F
:4039C0000A431A60BD4680BD10E000E080B582B000AF7860034B7A681202120A1A60BD4602B080BD14E000E080B582B000AF78607B68012B06D1084B074A126804210A43FE
:403A00001A6005E0044B044A126804218A431A60BD4602B080BDC04610E000E080B500AF034B1B681B0C01221340181CBD4680BD10E000E080B500AF024B00221A60BD4676
:403A400080BDC04618E000E080B584B000AF78603960074B7A689200D358FB60044B7A6892003968D150FB68181CBD4604B080BD1C10002080B582B000AF7860034B7A68DC
:403A80009200D358181CBD4602B080BD1C10002080B582B000AFFFF7C1FF031E012B13D100237B600DE00A4B7A689200D358002B04D0074B7A689200D35898477B68013315
:403AC0007B607B68042BEED9BD4602B080BDC0461C10002080B500AF0E4B0E4A126801218A431A600B4B0B4A126802218A431A60094B094A126830218A4310210A431A6090
:403B0000054B054A126807218A4301210A431A60BD4680BD00F02E4000FF2E4080B500AF0E4B0E4A126802218A431A600C4B0C4A126807218A4302210A431A60084B084A5F
:403B4000126830218A4320210A431A60034B034A126801210A431A60BD4680BD00F02E4000FF2E4080B500AFFFF7B4FF044B044A1268802109060A431A60BD4680BDC0463B
:403B800000F02E4080B584B000AF78600C4B1B6801221340FB607B68002B02D0012B03D005E0FFF797FF06E0FFF7B8FF03E00020FFF75CFEC046FB68181CBD4604B080BD45
:403BC00000F02E4080B500AF064B1B78002B04D100F00AF8034B01221A7000F011F9BD4680BDC0463410002080B584B000AF0F200321FFF7ABFD654B0F20191CFFF780FD7E
:403C0000634B0F221A60634B1B68002B01DA624900E06249624B624A12680A431A60614B614A1A60614B624A1A60624B00221A60614B624A1A60624B604A1A60614B614A3E
:403C40001268802149020A431A605F4B5E4A1268802149020A431A605C4B00221A605C4B00221A605B4B01221A605B4B1B687B607B685A4A13407B607B68802292051343A4
:403C80007B607B68012293437B60534B7A681A600023FB6073E0524BFA689200D258DC239B0113407B604F4AFB68D3181B781A1C7B6813437B60FB689B004B4A944663444B
:403CC0007A681A60464BFA689200D3580122134009D03E4B3D4A1268F96801208840011C89B20A431A603E4BFA689200D3580222134009D0364B364A1268F96801208840B9
:403D0000011C89B20A431A60354BFA689200D25880239B00134003D080235B00BB6002E080235B01BB602E4BFA689200D25880235B00134005D12D4BFA6852000021D1521F
:403D400009E0BB68002B00DA01335B1099B2274BFA685200D152BB68254A5343254A94466344181C244900F011FD031C9BB219B2224BFA689200D150FB680133FB60FB683A
:403D8000032B88D9BD4604B080BDC046B53F000020003A4080033A40702010137020001300003A4004003A40C400008018003A400000FF071C003A4010003A4002000200A1
:403DC00014003A4000033A4040033A4028023A4038023A4018023A4030003A40FFFFFFDF086B0100186B010080003A40FC31002010270000E40C0000C8190000EC31002005
:403E000080B500AF0A4B1B68002B0EDBC046094B1B68002BFBDB064B054A1268802109060A431A600A20FFF75FFDBD4680BDC04600003A4008023A4080B500AF044B044A02
:403E40001268802149020A431A60BD4680BDC04604003A4080B584B000AF78600023FB607B680322134011D00B4B1B6801221340FB60FB68002B03D17B6802221340F3D17D
:403E8000FB68002B02D0044B01221A60FB68181CBD4604B080BDC04610023A4080B584B000AF78607B68032B02D90020FFF7DEFC7B68032B09D87B689B00084A944663448A
:403EC0001B681B041B0CFB6001E00023FB60FB689BB21BB2181CBD4604B080BD80013A4080B582B000AF78600A1CBB1C1A807B68032B02D90020FFF7B9FC044B7A685200E0
:403F0000B91C0988D152BD4602B080BDFC31002080B584B000AF78600A1CBB1C1A807B68032B02D90020FFF7A1FC1F4B7A685200D35A99B2BB1C1A888BB2D31A9AB2BB1CB7
:403F40001A80BB1C00229B5E184A5A43BB1C00215B5E002B08DD164B79688900CB58002B00DA01335B1008E0114B79688900CB58002B00DA01335B105B42D1180C4B7A682F
:403F80009200D358081C191C00F000FC031C1A1C0E23FB181A800E23FB181B881BB2181CBD4604B080BDC046FC31002010270000EC31002080B582B000AF044B1B687B6066
:403FC000024B7A681A60BD4602B080BD10023A4080B584B000AF021CFB1D1A700E4B1B68DAB20F23FB1802218A431A70FB1D1B78DB18DBB202221340D9B20F23FB180F22F8
:40400000BA1812780A431A70034B0F22BA1812781A60BD4604B080BD0001044080B584B000AF021CFB1D1A700E4B1B68DAB20F23FB1804218A431A70FB1D1B789B00DBB2EB
:4040400004221340D9B20F23FB180F22BA1812780A431A70034B0F22BA1812781A60BD4604B080BD0001044080B584B000AF021CFB1D1A700E4B1B68DAB20F23FB18082157
:404080008A431A70FB1D1B78DB00DBB208221340D9B20F23FB180F22BA1812780A431A70034B0F22BA1812781A60BD4604B080BD0001044080B584B000AF021CFB1D1A707F
:4040C0000E4B1B68DAB20F23FB1810218A431A70FB1D1B781B01DBB210221340D9B20F23FB180F22BA1812780A431A70034B0F22BA1812781A60BD4604B080BD00010440F0
:404100000230800803D00138FDD1C046C046C0467047EFF3108072B6704780F31088704780B582B000AF344B1B68002B02D0324B1B689847314B1B680422134027D0304B31
:404140001B6801337B607B682E4A934201D100237B602D4B1B687A689A4205D12B4B1B682B4B20221A700AE0284B1B68D9B2294A7B68D3180A1C1A70214B7A681A60264B4E
:404180001B681F221340DAD1244B04221A60244B1B68022213402BD0224B1A68224B1B689A4215D0204B1B6801333B603A6880231B019A4201D100233B601C4B1C493A6832
:4041C0008A181278D2B21A60174B3A681A6006E0184B184A126802218A431A6005E0164B1B681F221340082BD6D1144B02221A60BD4602B080BDC04618100020CC0F2440D5
:40420000E831002001080000E021002040032440E5310020E429002008032440C00F24408C0F2440DC210020D821002040022440E4210020880F244008022440800F244013
:4042400080B582B000AF78600A1CBB1C1A80BB1C1A887B681A60BD4602B080BD80B582B000AF78600A1CBB1C1A80BB1C1A887B681A60BD4602B080BD80B584B000AF494BF8
:404280001B78DBB21B02484A1278D2B21343FB60464B1B78DBB21B02454A1278D2B21343BB60BB68434A934207D1FB68072B04D1414BBB600423FB6009E0BA68D4231B0186
:4042C0009A4204D1FB68042B01D13B4BBB603B4BBA681A603A4BFA681A603A4B1B78DBB21B02394A1278D2B21343FB60FA6880239B019A4202D0FB68002B01D1334BFB60F9
:40430000334BFA681A60334B1B78DBB21B02324A1278D2B21343FB60FB68304A934206D0FB682F4A934202D0FB68052B01D12D4BFB602D4BFA681A602C4B1B681B097B609D
:404340002B4B1B68AA2B29D17B68012B26D9214B1B78DBB20E2B21D1264B1B78DBB29BB21B0299B2244B1B78DBB29AB2BB1C0A431A80224BBA1C12881A60214B1B78DBB2EE
:404380009BB21B0299B21F4B1B78DBB29AB23B1C0A431A801C4B3A1C12881A60BD4604B080BDC04659F1FF0F58F1FF0F5FF1FF0F5EF1FF0F580B0000580D00006C002E405D
:4043C00074002E405BF1FF0F5AF1FF0F0220000078002E405DF1FF0F5CF1FF0F0F0F000005050000050F000080002E40EC0F00F0E00F00F06DF2FF0F6CF2FF0F84002E40AA
:404400006FF2FF0F6EF2FF0F94002E4080B582B000AF021CBB1D1A80BB1D1B88181CFFF763FABD4602B080BD80B582B000AF78607B68181CFFF734FABD4602B080BDC046E2
:4044400080B500AF00F0DEF8BD4680BD80B500AF00F0E2F8BD4680BD80B500AF00F0DCF8044B181C00F09CF8032000F0A5F8BD4680BDC0466146000080B500AF024B181CB3
:4044800000F07CF8BD4680BD6146000080B500AF014B181CBD4680BD0102000080B582B000AF78602B23181CBD4602B080BDC04680B582B000AF78602B23181CBD4602B07D
:4044C00080BDC04680B582B000AF78602B23181CBD4602B080BDC04680B582B000AF78602B23181CBD4602B080BDC04680B582B000AF78602B23181CBD4602B080BDC04641
:4045000080B582B000AF78602B23181CBD4602B080BDC04680B582B000AF78602B23181CBD4602B080BDC04680B582B000AF78602B23181CBD4602B080BDC04680B500AF5F
:404540002B23181CBD4680BD80B582B000AF021CFB1D1A702B23181CBD4602B080BDC04680B582B000AF786039602B23181CBD4602B080BD80B500AFBD4680BD80B582B0A3
:4045800000AF786000F048F87B68181C00F008F8032000F011F800F035F8BD4602B080BD80B582B000AF7860024B7A681A67BD4602B080BD0000002090B585B000AF021C1B
:4045C000FB1D1A700623FB600B23FC18FFF7A1FD031C23700A4B0A4A1268C0218A43111CFA1D1078FA689040021C0A431A600B23FB181B78181CFFF790FDBD4605B090BDC9
:404600000CE400E080B500AF024B802252011A60BD4680BD00E100E080B500AF024B802252011A60BD4680BD80E100E090B583B000AFFC1DFFF76DFD031C2370074B074AF3
:40464000126804218A431A6030BFFB1D1B78181CFFF763FDBD4603B090BDC04610ED00E080B500AF11F0D4FEBD4680BD002243088B4274D303098B425FD3030A8B4244D3D6
:40468000030B8B4228D3030C8B420DD3FF22090212BA030C8B4202D31212090265D0030B8B4219D300E0090AC30B8B4201D3CB03C01A5241830B8B4201D38B03C01A5241CD
:4046C000430B8B4201D34B03C01A5241030B8B4201D30B03C01A5241C30A8B4201D3CB02C01A5241830A8B4201D38B02C01A5241430A8B4201D34B02C01A5241030A8B4294
:4047000001D30B02C01A5241CDD2C3098B4201D3CB01C01A524183098B4201D38B01C01A524143098B4201D34B01C01A524103098B4201D30B01C01A5241C3088B4201D388
:40474000CB00C01A524183088B4201D38B00C01A524143088B4201D34B00C01A5241411A00D20146524110467047FFE701B5002000F0FCF802BDC0460029F7D003B5FFF722
:4047800075FF0EBC4243891A1847C04603460B437FD4002243088B4274D303098B425FD3030A8B4244D3030B8B4228D3030C8B420DD3FF22090212BA030C8B4202D3121268
:4047C000090265D0030B8B4219D300E0090AC30B8B4201D3CB03C01A5241830B8B4201D38B03C01A5241430B8B4201D34B03C01A5241030B8B4201D30B03C01A5241C30A4A
:404800008B4201D3CB02C01A5241830A8B4201D38B02C01A5241430A8B4201D34B02C01A5241030A8B4201D30B02C01A5241CDD2C3098B4201D3CB01C01A524183098B4207
:4048400001D38B01C01A524143098B4201D34B01C01A524103098B4201D30B01C01A5241C3088B4201D3CB00C01A524183088B4201D38B00C01A524143088B4201D34B00A0
:40488000C01A5241411A00D201465241104670475DE0CA0F00D04942031000D34042534000229C4603098B422DD3030A8B4212D3FC22890112BA030A8B420CD38901921115
:4048C0008B4208D3890192118B4204D389013AD0921100E08909C3098B4201D3CB01C01A524183098B4201D38B01C01A524143098B4201D34B01C01A524103098B4201D377
:404900000B01C01A5241C3088B4201D3CB00C01A524183088B4201D38B00C01A5241D9D243088B4201D34B00C01A5241411A00D20146634652415B10104601D34042002BF5
:4049400000D54942704763465B1000D3404201B5002000F00BF802BD0029F8D003B5FFF715FF0EBC4243891A1847C0467047C046014B18687047C046AC0F00200E4B70B586
:4049800000251E1C0D4CE41AA410A54204D0AB00F35898470135F8E712F0C2F8084B00251E1C084CE41AA410A54204D0AB00F35898470135F8E770BD2C6B01002C6B010072
:4049C0002C6B0100346B010030B50024944208D0035D651C0C5DA34201D0181B02E02C1CF4E7002030BD002310B5934203D0CC5CC4540133F9E710BD031C8218934202D072
:404A000019700133FAE77047134A1088810703D08107890F401A001D11791030484381B25088820703D08207920F801A001D800040180A494030098980B2CA0701D050301C
:404A400080B2890706D504495422091F09785143081880B270470000420C00204410002010B501F0AFFE10BD10B500F055FA10BD10B50749044609780220002907D1204644
:404A800001F0F0FE002802D120460AF0BBFE10BDC60D002070B504460120002C12D02368002B0FD0616800290CD0074D06222889208118462968FFF796FF696860680978E0
:404AC0000170002070BD000044100020FFB585B0002768460E9D07734F481C460078002802D0082009B0F0BD10990F9801900095029105A807C800F001F90028F2D169469F
:404B0000264603AB84460873002C19D0002115E08A00B75A082F09D990198078002805D0083FB7521878401C187005E0002914D00027B75290198770491CC9B2A942E7D38E
:404B400060460028CED10F98002809D0109901F0E9F9002804D00120C4E701208446EFE701F030FE2D480021416081600599016021888180022D07D3A1798171A17AC171D9
:404B8000A1890181218A418100211EE0481C19E082008B00A75AE65ABE46BE4211D26F463E80B4461E190296B678BE7001967646E6521719029EBB78B3706646A652019E9F
:404BC000BE70401CA842E3D3491CA942DED3134822460C3000906846037B0799069800F015F90028B8D168460B4C007B60700B480C3001F017FE0028AED1084907480C3179
:404C000007F012FD0028A7D107F02CFD0028A3D10121217066E700003C0C002038100020F8B5054633480E460078002802D002242046F8BD002E5BD000242F49002D16D0C0
:404C40002A89D0070DD02868002808D003881B3BE12B04D24088FB2801D81B2801D2012409E0900707D56868002804D1F7E70020088108604860002CDAD11F482F8907813D
:404C80001C481B21801D018041800421017119490020891C0870F80705D016480622801D2968FFF7A0FE1449B80703D56A681148127882700F480D46801D0860001F486012
:404CC00001F0F6FD0B48801D01F0E4FD28890DF0F9FD28890DF02EFF03461033FFF794FE1F21C018890140180249308088809FE701249DE73C0C002044100020FFB58446F5
:404D0000384F1C460020BB883F78054602460646002F11D100290ED0029999420BD36146002908D0002C06D00A99002906D02E4B0B99994202D2012004B0F0BD002144E046
:404D4000AB001F19BF78002F3BD0E35A002B38D07B43591889B22B0000F04AF8050410161C253100A7782388BC46FF27233BEB37BB4222D26346032B1FD322E0A388002B83
:404D80001FD0302B19D31CE02389002B19D0282B13D316E0A289002A13D01346134F233BBB420AD20DE0268A002A0AD033460F4F233BBB4201D2964203D901200EE000201F
:404DC00001E000280AD16D1CEDB2099B9D42B7D31C2463435B1802998B42ACD89642AAD8AAE700003C0C002079020000BAFF000030B47446641E2578641CAB4200D21D466F
:404E0000635D5B00E31830BC18470000FFB583B0002469460C801F4606468C80002806D00598002803D004983043800701D0012466E0002FFBD03449049809888842F6D36F
:404E4000FFF71AFBFFF702FB00F00EFC002855D100F05EFD002851D12C49084601F096F805042D0C4AD12A480499066081800021C18007810C98007AC00704D0684601F000
:404E8000BAFC040007D10C98007A800703D501A801F0BAFC0446BF1DFEB2002C20D13146059800F05DF804001AD10DF051FE040016D16A461088928808368518144AF1B2E3
:404EC0009088D288AEB29319984207D3401B801A80B201F04BFB050007D000E0FF25012400F05AFA002D04D008E0F8B200F01CF9F6E700F07DFA07490120087000F0C6FB63
:404F0000204607B0F0BD0000400C00204D50000050100020480C002010B503480078012801D101F0C5F910BD480C002070B5084B0446DA889E8800205518B54206D81D6806
:404F4000AA182260DA885118D98070BD032070BD50100020014800897047000050100020F0B587B007460D4600208900009006916846FFF7DBFF844600285DD130480099C8
:404F80000160002117E02E4B88001A680629115406D22C4C0419667882185670628805E0C419203CA67A8218567022891B68C018491C4280C9B2A942E5D300242DE0601C36
:404FC000C2B2059025E01E4FA30039689600581840887118039604904E88B04217D938466F46FE80B6464F786E4677710297049F4F800168039F5E18767879184E70016874
:40500000764659184E800068029F18184770521CD2B2AA42D7D30598C4B2AC42CFD36046002809D168460699FFF780FF8446002802D1054900980860604607B0F0BD0000D3
:405040004C0C0020586B0100500C00207047000010B5002809D005494A68002A05D0011F08788000105801F02FFA10BD4C0C002010B50446FFF76EFFC0B2801DA0420CD3D3
:4050800007484068002808D0A100405801F08EF9002801D00470001D10BD002010BD00004C0C0020F8B516460D460446FFF752FFC0B2801DA04203D20020C0430090F8BD71
:4050C000B2B2E9B2684601F097F90099481C03D0024AA000526811500098F8BD4C0C0020F8B50746FFF736FF801DC6B20A49002005460C680DE06178002907D06188B942D0
:4051000002D32078FFF7B4FF002804D1241D6D1CEDB2B542EFD3F8BD4C0C002010B5002801D0FFF795FF10BD70B506460948002504680BE06178002905D062882078121D32
:405140000023FFF7AFFF241D6D1CEDB2B542F1D370BD00004C0C0020FFB581B00A9C16002BD000F0EFF80546042826D0214F002C0BD02046FFF7B4FF2901C919486000285D
:405180001BD022460499FFF72EFC1A4928010E5046187481019805707D20029CC000444300F0BEF8074604280AD000F053FAA0420ED800F04FFA201A06E0FF2005B0F0BD3A
:4051C000204600F0ABFA0020F06035720020F5E700F040FA009000F0B7FA00980121001B009000F0EDF803493A0151180098C860E6E700005C100020F8B5060116483418A5
:40520000217A042903D0E068002802D017E00020F8BD00F01FFA054600F096FA00F0A0F804280CD001010C480F18F8680021451900F0C6F80020F860284600F06FFA606850
:40524000054D002801D0FFF769FF042020720020A8516081E060DAE75C100020FEB500266A46304601232549050169180D7A042D02D0C96800291BD000211154401CC0B20D
:405280000428F0D300246846005D002830D01B48210108184189476805680291002101604160042241810272C160002E02D015E01354E3E700F054F804280ED001010F4825
:4052C00008180190C6680021304600F079F801980021C160304600F021FA0126002D07D038460299A847002F02D03846FFF716FF641CE4B2042CC6D3FEBD00005C10002098
:405300000EB5002005216A460090118150810348694600680EF091FA0EBD0000540C0020074A0020010189180B7A042B02D0C968002903D0401CC0B20428F3D3704700004D
:405340005C1000200549002002015218127A042A03D0401CC0B20428F6D370475C10002030B50A4B04200A4C00210A011219157A042D06D0D268002A03D09A4201D8084658
:405380001346491CC9B20429EFD330BDFFFF00005C1000207047000030B50020074C05460423020111190B72A5504D60401C4D81C0B2CD600428F4D330BD00005C1000204C
:4053C00030B5094C00231A011219157A042D04D0D568002906D02D18D5605B1CDBB2042BF1D330BD2D1AF7E75C100020002070471CB5002469460C70142001902346054AB7
:4054000005480EF01FFA04480068401C00D1FF2420461CBD6D540000540C00203EB5124A0146FF2000230124126800290DD0012914D0042908D104206946009308814B8138
:4054400010460EF0FAF980B23EBD6846009304814381694610460EF0EBF9F4E768460093048143816946EBE7540C002070B545890468416800890300FFF7BAFC0828050963
:40548000091E22282628002005F06CFE1EE0022908D0C8B22A4621460CF0FCFA2046FFF73DFE13E002202A4621460CF0F3FA2946204600F00DF809E000200DF0ADFE05E09E
:4054C0002046FFF7CBFE01E0FFF754F8002070BD014B0022DB681847580C002070B5448905680089022803D0032809D0FF2070BD2246094C0023A46829460120A04708E003
:40550000FFF7AEFA241DA2B200232946022006F054FF002070BD0000580C002070470000024800214160018041807047580C002070B50C46002186B016460391012802D071
:40554000022859D116E003A9012006F07EFF01281BD1039D324621462846FFF744FA0095287801900220694608814E816846FFF7B5FF41E0214D002B686809D0049004A980
:40558000022006F062FF01281DD0022006B070BD002812D0298840182146FFF724FA28880024801980B228806988091D884206D12C801348FFF792FF03E00320E6E788429F
:4055C0001AD96C6018E004986860E278A378110219430B4A698000231060E3565360032313815181A1788170E178C1706178417021780170042028800020C7E7580C00201D
:405600009C1000203EB515460C46022803D004280CD000203EBD0091019002206946088107484A8100680EF008F907E00CF032FA044B0022DB6829462046984701203EBD4E
:40564000540C0020580C0020014AD16090607047580C0020034801688068081A0A21484300097047A810002010B5FEF7F5FE482204490548FFF7B7F903490120C870002057
:4056800010BD0000746B0100AC14002010B5FEF7D7FE10BD70B5134C2368002B08D0207B1149C20705D04008400020738868A08070BD88680B4AA18880B29268814203D9CB
:4056C0000A4D691A091802E0814202D2411A5118A160A080A0689842EAD30EF0CBF800F013F870BDA8100020C0102E40FFFF000010B508461946FFF7A7FF10BD704710B55E
:40570000FFF780FF10BD000003480021016041608160C16070470000A8100020024610B5FF20002A0CD0FFF7EFFF064C0321207B0843207310010A21FFF71EF8206000203B
:4057400010BD0000A810002000B504480A21806848430209FFF7D8FF104600BDA81000200248007B8007C00F70470000A810002010B54B490868002802DA4A4B01221A7069
:40578000022290430860484800694549C00B4031096A0246C907C90F0A4259D0012000F07FFA3F480E216C30FEF758FD3E4820218430FEF753FD3C4814219C30FEF74EFD44
:4057C0003948FF21C131A430FEF748FD3648FF212F31B030FEF742FD33483449BC30FEF73DFD31483249AC30FEF738FD30492E48491CB430FEF732FD2B482E49B830FEF7C6
:405800002DFD29482C49CC30FEF728FD26482B490830FEF723FD24482949A830FEF71EFD214828498830FEF719FD1F4826498C30FEF714FD1C481921C9029030FEF70EFDEF
:40584000FEF71AFDFEF722FEC0B2022812D01FE000290BD0002101420AD0114801216030FEF7FCFC0120FEF7DFFD97E70121F2E7FF2010BD15491648FEF7F0FC14481549A2
:40588000001DFEF7EBFC124800210830FEF7E6FC54200449C043891C0870002010BD000000F02E40680C002000002E40320300002F3F00003102000010520000EC160000FD
:4058C000FA12000031D000003AE300009956000080012E40F80F000070B50646581C80B245086D00002408E0304600F0A9F81055000A1119A41C4870A4B2AC42F4D3D807BA
:4059000005D0D0182038D15CC47FD454C17770BD10B5FF2000F0C4F90F49FF2048700E481021801D41800121417001700A490020C91C4870FFF71CFF04000AD100F010F973
:4059400007210648FEF77CFC044807211830FEF777FC204610BD0000680C0020CC112E4070B5002405465B1E0AE0284600F068F8010A161971702D1D1055A41CADB2A4B21A
:405980009C42F2DB9C4203D1284600F059F8105570BD000070B500210A4D5B1E0AE0541864782602545C344346193480001D891C80B289B29942F2DB994202D1515C401914
:4059C000018070BD00102E40F0B50599091FCFB200217E1E0BE0541864782502545C2C43164D45192C80001D891C80B289B2B142F1DBFC0712D01C78515C24020F4A0C430A
:405A000081180C809C785D78001D210280B2294384182180001D80B2D9780CE059781A7809021143054A84182180001DD9789B78090280B2194380180180F0BD00102E4005
:405A4000014940180088704700102E4010B50B490020487000F084F8002000F047F9002000F034F907210648FEF7EAFB044807211830FEF7E5FB002010BD00006B0C002078
:405A8000CC112E4010B50B46062812D006DC01280CD0032801D1FFF7D9FF10BD0A28FCD00B28FAD105480078107010BDFFF730FF10BD1146184600F035F910BD6E0C0020BC
:405AC000F8B5244DAC6A0127A007234E002816DA307806280ED1286A384328621F480069F903084381B21D481030FEF7B7FB042000F0D6F8174802212830FEF7A1FBE00704
:405B000018D000F0E1FE01280FD1002000F02EFF062000F0C5F81049FF20C91E48707078002802D1686B384368630A4801212830FEF786FBE0050BD53078042802D10520AF
:405B400000F0AEF80348FF2101312830FEF778FBF8BD000040F02E406B0C002000002E4010B503212348FEF779FB0120FEF74EFC20483038406A204C80076178800F89005F
:405B800001431C480C38FEF769FB6078002808D0401E022181401820FEF7DEFEC000083800E0B82081B21548FEF758FB1348032109021438FEF752FB10481149B830FEF746
:405BC0004DFB612189010F48FEF748FB0D480321001FFEF743FB0C490C48FEF73FFB0B480B496038FEF73AFB084801218838FEF735FB10BD70F02E406E0C0020D8102E40D4
:405C000090890000041E2E40FF0F000058122E40209000000849087806280BD148780749002803D1486B400840004863C86A01221043C862704700006B0C002040F02E409A
:405C400001480078704700006B0C002000B50300FFF7CEF8080D050D0B070507090D012000BD032000BD042000BD022000BDFF2000BD0000074A9168D26889B2064B92B298
:405C8000994204D105498A4201D1012100E000210170704780002E4033D000003FE3000010B50446FEF7D2FB072C01D9FF2C01D102480470FEF7C4FB10BD00006B0C002039
:405CC0000149487070470000680C002010B5064A012805D01921C9021046FEF7BFFA10BD1D21C902F8E7000090002E4010B50A4A141D012808D009491046FEF7AFFA0849A6
:405D00002046FEF7ABFA10BD04491046891CFEF7A5FA0349491DF3E788002E4031D000003AE3000070B50C460546FEF7AFFBC0B202280E49287804D0FF2810D04C280CD8F3
:405D400010E0FF2809D10A4AD0680004800F032801D0087807E09069000A553803E00878207070BD4F382070087070BD6A0C002000002E40F0B50122002830D000292ED029
:405D80000424420600D00524792342065B06D21800D0641C034600221EE00C2516466E43104D00277519AF720E4F002ABB51696007D0661EB24209D10B4E86197606760EA4
:405DC00005E05E06760E8027BE1B00E080269B198919521C2E81D2B2A242DED300221046F0BD00003413002079020000074900200C2242435218927A012A05D0401CC0B2D6
:405E00000628F5D3002070470120704734130020F8B50F000446164609D0184D18496868A04202D94018A04201D38E4201D90120F8BD39462046FEF7C7FD00281BD0324611
:405E400039462046FEF7CFFDF0B200210C224A43521913895668F718A74208D90127A41B1B1B9772834206DAC01A1469C0B2491CC9B20629EAD30020F8BD000034130020C4
:405E80007902000010B500F05DF80748054AC16806480C46FEF7A7FD04492046FFF76AFF10BD000079020000740C0020B8100020002070470020054A002902D0012902D03E
:405EC00002E0506000E0906000207047740C002070B5084C154608460549A26889182A46FEF781FDA0684019A06028B270BD0000B8100020740C00203EB50A226946FFF717
:405F0000E7FF044606480A2200686946FEF75CFD002802D00020C0433EBD20463EBD0000740C0020002802D0044A914201D2FF20704703490A61C860002070477902000044
:405F4000740C0020024800214160816070470000740C002070B5074C15460548626880182A46FFF755FF60684019606028B270BDB8100020740C002010B503490A220968E3
:405F8000FFF7E8FF10BD0000740C002010B50F4A002313600E4A13600E4B18600E4801600E49012008600E490860000290600E490C4808600D4914300860FF3815385060B6
:405FC00000F0BCF800F0CAF9002010BDA00C0020880C0020B40C0020B80C0020A40C0020940C00207C140020980C0020AC0C0020014610B50020002910D0094B1A689C682E
:406000005118A14209D25868196080188A0704D08A07920F891A091D196010BD002010BD880C0020F8B50024164E671E321F3D463168136806E01422624310328A58521C2C
:406040001BD0641C9C42F6D36A1C14D02C461422544322460C3288500C214843FFF7C8FF3168002808510AD031680020103408517068401C70602846F8BD2546E4E738464D
:40608000F8BD0000980C0020F3B50026F64381B000281BDB1E490968884217D80299002914D01B4F142204463F1D54432546396810354859401C09D0FEF7C8F938682F1F30
:4060C0004159C359994203DBFEF7BAF93046FEBD214608310091465801590C20704308180C220299FEF77FFC0948761C001D0068C159B14200D100260549009A091D8650A7
:4061000008684159491C4151FEF79AF90020FEBD940C0020002803DB07490968884202D90020C043704704491422091D096850431030085870470000940C0020F0B500206C
:406140000D4A451E0346171F50600FE014260146714314680E1DA3510C461668083433511668083435511468401C635039688842ECD30020F0BD0000980C0020F3B5002693
:40618000F64381B0002841DB2349096888423DD8029900293AD0204F142204463F1D54432546396810354859401C2FD0FEF74EF93868415900292BD0211D009146580C2144
:4061C000005971430F46C1190C220298FEF70BFC11480021001D0068761C00590C34C0190160416081600C48001D00680159B14200D100260849009A091D865008684159AB
:40620000491E4151FEF71CF90020FEBD3046FEBDFEF716F9FAE70000940C0020FEB504460D4600201E49089E0860471E009001900290002C11D0486885420ED2002A0CD043
:40624000002E0AD0642E08D808460C3001681C2068430C18207A002801D03846FEBD0120226020721846FFF7DDFE6060401C13D06681A6810A4827610C3067610179A94226
:4062800000D205710021684601810A462846029B00F040F82846FEBD00202072DDE70000A00C002038B50124009400F039F838BDFEB50027164EFF433D4600240EE01C204A
:4062C000316860430818017A002906D04068FFF721FF002801D0254603E0641C3079A042EDDA681C12D01C2130684D434419FEF7ADF869466068FFF741FF0546FEF7A0F8AA
:40630000002DD9D1216868468847D5E7FEBD0000AC0C002038B50024009400F001F838BD1FB500220C49541E0A60002811DB496888420ED808491C220C3109685043081822
:40634000406801A9FFF7A0FE401C02D0002004B010BD2046FBE70000A00C0020F0B50021114A4D1E174611710C3F0B46BD6016E008461C2460431668041D3551146806461C
:40638000235014680836A3551468361DA353044616680A34335318301468491C255078688142E5D30020F0BDAC0C002038B500210091002811DB0F49097888420DDA0D4D32
:4063C00004010C3529680859002807D0201D0818694600F06FF9002801D0002038BDFEF735F828680F34015D491E0155FEF728F8009838BDBC0C0020F7B582B000250298BD
:406400006E1E06602E48D21C024017462D4A2C4610460C380178106805E02301C358002B0FD0641CE4B28C42F7D3711C28D03401211D40180191039900F02AF900281FD16E
:4064400001E02646F1E71F48016820460C300F521C480399026820460E30115419480399026820460F3011540398784300F0A0F8144900280968085102D00024009011E09C
:4064800001251AE00F48016801980818009900F02CF9002801D0012502E00098C0190090641CE4B203988442ECD3002D05D10298066004480179491C0171284605B0F0BDED
:4064C000FCFF0000C80C0020F8B50D4600216A468C461180002839DB23490978884235DA214B04010C3319680A59002A2ED020460C300B5A801C0E5C18467043801895422E
:4065000024D3854222D2002006E007465F43BF18AF4206D0401CC0B2B042F6D36046002814D0114E271DC8190C366A46294600F006F900280AD168460088012808D0306835
:406540002946C01900F0D1F8002803D00120F8BD0020F8BDFDF77AFF30680F34015D491C0155FDF76DFFF3E7BC0C0020F8B50F46002400F031F8002817D10C4900220B46DA
:406580000C334A600EE021011D680E466A501D680C36AA53B61C1D680F31AA551D68641C6A54E4B2BC42EED31A71F8BDBC0C002000280BD0C01C074A8108506889005388E0
:4065C0004118994203D89368516018187047002070470000BC0C0020F8B5064600200F4D009029700C0121466846FEF79FFC00280CD129460C3100980860301B001F84B299
:4066000021466846FEF792FC002801D0FF20F8BD6C800098A8600020F8BD0000BC0C0020F8B5002827DB19490978884223DA174C05010C342168485900281CD028460C309A
:40664000085A009028460E300E5C401C0E5420682F1DC01900F064F800280CD12068002445590EE0094829460C300068C01900F03CF8002801D00120F8BD00982D18641C91
:40668000E4B2B442EED30020F8BD0000BC0C002030B50D4604000BD0A800FFF789FF6060002805D000202570C0436080002030BD012030BD70B50D46040005D0002D03D0D2
:4066C0000220205E002801DA012070BDFDF7BEFE0221615E60688900405828606088401E6080FDF7ADFE002070BD70B50D46040007D0002D05D002212078615E401E8142A4
:4067000001DB012070BDFDF7A1FE6088401C00B26080616880000D50FDF792FE002070BD10B5040009D0227800216068FEF764F90020C0436080002010BD012010BDF0B555
:4067400000231D46002802D00224045F0AE00120F0BD46689F00F6598E4201D1012503E05B1CDBB29C42F4DA15700020F0BD00000148007870470000D00C00207CB505461F
:406780000024FEF76DF9A8796946087000A8062229460130FEF727F90021684604F0A8FF0C2806D0072806D01F2806D0122806D006E0022404E0042402E0272400E001249D
:4067C00020467CBD10B500F075F9FFF739FAFFF73DFA10BD70B504460025FEF741F9002C06D0A079012803D8214602F0F5FC00E00125284670BD01460120002902D0502014
:40680000088000207047000001460120002905D003485422007850430880002070470000D20C002010B502460D49FE204870032410460DF025FB002810D10DF0C9FA0028A6
:406840000CD105F05FFE002808D100F04FFB002804D105F01DFA002800D10024204610BDD00C002070B50025044600280ED0A07901280BD8FEF7F4F8A0790028204602D040
:4068800002F0EEFF03E002F0C3FF00E00125284670BD0000014610B50120002904D006220248FEF7A0F8002010BD0000DC0C002001460120002903D00878024908700020DC
:4068C00070470000D20C00200148007970470000B415002038B504460120002C20D0617801291DD800290BD0FF25E535FEF7B8F80C4828180088C0B22070072803D00EE020
:40690000FF25CD35F2E70020694608706846FFF7B1F969460878012801D108202070002038BD000000102E40014A002192681047D00C002008B500226B461A7026280CD051
:40694000094A342852680BD0352805D1900703D50021352005F0A8FE08BD19462620F9E7D007F9D03420F5E7D00C00200149087170470000B4150020F8B504460120002C63
:4069800026D06178012902D92278092A20D8002905D0FF25E5352078092803D004E0FF25CD35F8E708202070FEF75AF82078114F114E08280DD00020FFF798F97078012862
:4069C000207810D00D4969180880FE2070700020F8BD0120FFF78AF90720B8810549203188800120F2E7B8810248217820308180EBE70000C0112E40D00C002000102E405A
:406A000070B50E46050001D0002400E00C4C002C11D0E28A500609D5D107C90F022002F0F9FFE08A40218843E08204E0D107C90F012002F0EFFF3146284602F0D3FC70BDE2
:406A400014150020F8B50546002004460D4E009013E022466946284600F09AFE0098002801D00DF0EFF9A878214602F007FBA878214602F0F5FA641CE4B2308AA042E8D8B5
:406A8000F8BD0000D8150020064A02235188891C89B25180814201D8102900D95380508870470000E20C00200148407870470000E20C002038B51E4CFFF7C2F8042813D01B
:406AC000052811D0062812D003282AD007280AD100206946087002460120FEF7D3FFFFF7AFF80128FBD138BD00F0D5FB38BD02F031FB00F0D0FB02F091FB8007800F0228FF
:406B0000F4D10C4841880029F0D05B21095D0029ECD101210170A07D0140022002F07AFF38BD02F01BFB0120FFF7BAF838BD000014150020E60C0020F8B50646002402F01F
:406B4000C7FF0546304602F0DDFF03460A480021068A0DE001228A401046174628401F40002803D0002F01D1224394B2491CC9B28E42EFD82046F8BDD81500201CB50020E9
:406B8000694648706846FFF7A5FE01AA69460A20FEF778FF6946042008561CBD70B50D4601F09CF904000BD02079002808D0FDF757FFE178A0782A4602F0AAFC002070BDA7
:406BC000022070BD0148007870470000EC1400204030C07E002800D00120704700B500F001F800BD902148430749084A40186030417F491CC9B24177D289914201D3002194
:406C00004177C8B270470000F4140020D815002013B501F063F904000BD001F026FE002807D0214601AA0A310620FEF72BFF00201CBD02201CBD000010B50C4601F04EF959
:406C400000280AD001F011FE002806D0224604490A20FEF717FF002010BD022010BD0000D5140020F3B581B0074601460026029802F026FF0446002F01D0002500E0154D50
:406C8000002D21D0284601F05FF9032C04D13946029802F071FF06463846029902F0E0F9032C06D0002C10D00121384601F0FCFA03E03146384603F0F3F8284602F0D8F8D2
:406CC0000221284602F0EEF8FEBD3846029902F0C7F9FEBD1415002010B5044600F0C4FA002804D104F07AF8002801D00C2010BD2078611C02F008FDFF2801D01F2010BD7F
:406D000002F04EFDFF280AD02178621C02F03EF9044821780068026B601C904710BD072010BD0000040D002010B504F057F8002801D00C2010BD02F0C9FC03480068C06A48
:406D40008047002010BD0000040D002070B50D46044610210CF0B6FF1021601806460CF0B1FF334610221946204604F065F8102130460CF0A7FF02202870204604F0ACFE21
:406D800070BD0000F8B504464078217802028006870FE0781143A67809050002090D0643084601F09BF800210546F2B2002812D0002C10D0022F0ED0032F0CD0002A0AD0EC
:406DC0000279092A07D0002A05D0134A5A23527E1B5C9A4207D82889002104F073FD20460DF030F8FF21002914D10C48224600682946436930469847C0B2FF280AD12846CE
:406E00004030817EF2B2491C8176FF232146284600F009F9F8BD0000AC140020200D00200020704710B5044603F0D8FF002801D00C2010BD2078611C02F066FCFF2808D00E
:406E400002F0AAFB044821780068426B601C904710BD1F2010BD0000040D002010B500F09DF904F015FF002010BD000010B504460F4801F023FD012817D00D48052221467A
:406E8000A830FDF7B0FD0A490522A8310846B838FDF7A9FD00F030FD054880222038C17B1143C17300F0B0F910BD3A2010BD00001415002010B5044600786178E27808432B
:406EC000A17811430843217908436179084305D003F076FF002803D00C2010BD122010BD204602F0BDFC002010BD000010B5FDF7CDFA02F00FFE044803F0FEFF02F056FBA4
:406F0000012000F003F810BDBC140020F1B586B003A8009005A8019028489F22817A114081726846FDF7B6FD002845D169460989C90705D0224806990068C268684690472A
:406F400069460989890706D5002835D11D480068816A0698884700282ED11B4E0025757075737571F575357675767575B570F570B5713746F5730120C83738731F20F880A9
:406F8000FF2130467972A0300176457603F08AFC01F04CFC00242046069901F0F9FB002803D1641C2406240EF5D0FD720649BD72B573C0310D600D7107B0F0BDAC140020BC
:406FC000200D0020040D0020F414002070B505460E46084602F07CFD0446304602F092FD0121A9400A46224001400A4301D0012070BD002070BD10B50446084602F082FDA8
:407000000121A140014201D0012010BD002010BD10B5FEF715FE032804D102F09FF80120FEF73EFE10BDFEB51C4616460F46054601F01EFFA878FFF7D1FD02460190334694
:4070400039460094284600F00DF8002808D1A8780199FFF7D5FCFF2C02D138460CF0F2FEFEBD0000FFB585B005460E980C46FF2810D02B49C00009680A5840180179C079B0
:407080005278814201D9012601E09006860F6846038108E06078A1788006860FE0780002014368460181284601F0F4FB070007D021462846079A00F017FB384609B0F0BDBA
:4070C000304600F0FDFB04AE0346039002AA29460096204600F003FA3C20405D002818D0284601F0D7FB012813D0684600890096C0B20190A878231DFF22079902F026F958
:4071000068460089039BC2B2A878079902F06AFCD3E7684600890021C0B20091E9E700001C0D0020F8B5104F002500242846FFF703FD060012D00EE03046E040C007C00F05
:4071400007D02146284601F083FF21462846FFF789FD641CE4B2388AA042EDD86D1C2D062D0EE2D0F8BD0000D815002070B50024094D03E0002C01D0002000E02846412166
:40718000095C012901D100F068FA641C2406240EF0D000F039F870BD1415002010B502F005FA0020FFF7B2FE0CF0E2FE002010BDF8B5002403F012FB012800D10224114F53
:4071C00000203E46203601230425082203E0002801D0002100E031460979002907D001290BD002290BD0114681402143CCB2401C0006000EEBD07C70F8BD1C43F7E72C43CB
:40720000F5E70000F414002070B5144E0024F07BC00921D03546203503E0002C01D0002000E0284601F02CFB012814D0641C2406240EF2D0F07B4006400EF073002403E030
