:400000000080002011000000F10B0000F10B000080B500AF00F0F6FD80B500AF294B12221A6003F04DFB284B181C03F031FD012003F056FB302003F0C3F8244B244A1A608D
:40004000244B8022D2051A60234B234A126802210A431A60214B224A1A60224B00221A60214B214A126808218A431A60FA23DB00181C03F09BF91D4B181C03F0C5FA1C4B5B
:40008000A022D2001A601B4B1B4A1A601B4BC82252011A60174B1A4A1A601A4B822212061A60194B8022D2021A60184B40221A60174B41221A60074B8022D2051A60BD46DB
:4000C00080BDC04630001040001BB70004010B40060000800C020B4078002E407C002E402D3E000064F02E406CF02E40DC050000000301400000014040FF00800403014008
:4001000041FF008008010B4000010B40180101400401014080B582B000AF72B63A4B00221A60FB1D00221A7023E0FB1D1A78131C5B009B185B00354A9B183B603B681A7855
:40014000597809020A43997809040A43DB781B061343191C3B681A795B791B0213439BB2081C191C00F0D2FDFB1D1A78FB1D01321A70FB1D1B78012BD7D9254B254A1A60AB
:40018000254B992212041A60244B992212041A60234B992212041A60224A224B1B78DBB202210B43DBB213701F4A1F4B1B78DBB23C218B43DBB214210B43DBB21370194AF6
:4001C000184B1B78DBB216210B43DBB21370174B22221A60164B174A1A60174B20221A60164B01221A60164B04221A60154BCC221A60154BCC221A60FFF70EFF00F096FD58
:40020000BD4602B080BDC0466CF02E402479010000000240000099EE00500F4010500F4030500F4000700F4001700F4000000440080004402010DB001800044000010440BD
:4002400008010440000304401803044010B5064C2378002B07D1054B002B02D0044800E000BF0123237010BDB00F002000000000AC75010008B5084B002B03D0074808496B
:4002800000E000BF07480368002B00D108BD064B002BFBD09847F9E700000000AC750100B40F0020A80B00200000000090B583B000AF62B602F09AFDBC1D194B181C00F01D
:4002C000DDFD031C2380BB1D1B88002B1CD1154B181C02F05BFF144B181C02F057FF134B181C02F053FF124B181C02F04FFF114B181C02F04BFF104B181C02F047FF05F0E5
:400300006DFC03F00DFA04E00C4B181C02F03EFFFEE700F01DFC00F013F805F05FFCF8E7F1030000B0750100F0750100307601007476010090760100B0760100CC76010021
:4003400090B583B000AF244B1B78032B04D0052B26D0022B09D03CE0204B1B78DBB2002B02D000F06BFE34E033E01D4B1B781F2B02D000F0A5F912E01A4B1B78DBB20122C3
:400380005340DBB2002B02D000F018FA07E0164B1B78DBB2012B02D000F0D6FB19E018E00E4B1B78DBB2002B0ED0BC1D0F4B181C00F054FE031C2380BB1D1B88002B07D19B
:4003C000064B00221A7003E0002000F0E5FDFFE7C046BD4603B090BDA8210020D60F0020DF0F0020D70F0020B8210020D80F002080B586B000AF786039607B68522B00D976
:4004000034E17B689A009B4BD3181B689F463B687B617B691B78042B38D17B691B7A062B34D17B69DB6801331B78FF2B2ED17B69DB6802331B78312B28D17B69DB6803335C
:400440001B78012B22D17B69DB6804331B783B2B1CD17B69DB6805331B78042B16D1864B01221A707B695B68844A111C1A1C0623081C111C1A1C05F04AFB7B695A787F4BBE
:400480009A717F4B181C02F081FEF0E0EFE07A4B00221A707B4B00221A707B4B00221A707A4B181C02F072FEC04602F05DFD011C774B1A6880231B02134001D0012300E0D8
:4004C0000023CB18002BF0D102F0A2FC02F070FD02F0CCFC02F08AFCC9E03B683B613B695B685A1D6B4B101C191C102205F000FB031E1CD13B695B6803331B789AB2664BAF
:400500001A803B695B6804331B781B029AB2624B1B889BB213439BB29AB25F4B1A805A4B1B7802221343DAB2574B1A7027E03B695B685A1D594B101C191C102205F0D8FA6A
:40054000031E1CD13B695B6803331B789AB2544B1A803B695B6804331B781B029AB2504B1B889BB213439BB29AB24D4B1A80464B1B7804221343DAB2434B1A7077E076E081
:400580003B68FB60FB685B6803331B78292B21D1FB685B6802331B78022B1BD1FB685B681B789AB23F4B1A80FB685B6801331B781B029AB23B4B1B889BB213439BB29AB21D
:4005C000384B1A80304B1B7808221343DAB22E4B1A704CE04BE03B685B88162B04D83B685A88314B1A8002E02F4B17221A80264B1B7810221343DAB2234B1A7037E03B6833
:40060000181C00F0F9F832E03B68BB60BB685B681A88264B1A80BB685B685A88244B1A80194B1B7801221343DAB2174B1A701EE03B685B88162B04D83B685A881A4B1A8064
:4006400015E0194B17221A8011E00E4B01221A70184B181C02F09AFD174B181C02F096FD05E0164B181C02F091FD00E0C046BD4606B080BDD8770100D60F0020D80F0020EA
:4006800034770100D70F0020DF0F00206C770100080224400C770100CC0F00201C770100CE0F0020D00F0020AC0B0020D20F0020D40F002084770100A0770100BC770100F6
:4006C00080B500AF354B1B78012B1AD002DC002B05D05EE0072B32D00F2B4AD059E0304A304B117852781202114300220904090C120C12040A43101C19685A6810F068FFC5
:4007000047E0294B1A88294B1A80294B1A88274B5A80234A254B117852781202114300220904090C120C12040A4319885B881B040B430021191C101C10F02EFF29E01D4B9E
:400740001B8801339AB21C4B1A80194B1A881A4B5A80134B18491A785B781B021A4300231204120C1B0C1B041343181C10F0FEFE0FE00B4B1A785B781B021A4300231204F2
:40078000120C1B0C1B041343181C172110F03CFFC04605F023FABD4680BDC046DF0F0020BC2100202C770100D20F002084210020D40F0020CC0F00208021002080B500AF62
:4007C0000A4B1A880A4B1A810A4B09491A785B781B021A4300231204120C1B0C1B041343181C10F0A3FFBD4680BDC046D00F0020B00B0020BC210020F0B597B000AF786132
:4008000068463861B24800880338431E9C466346FB64031CBB600023FB60BB685B0F9C46FB68DA0063461A43BB68D900021C151C0022161C6A0FF3007B607B6813437B6005
:40084000EB003B60031C0733DB08DB006A46D31A9D466B460033BB647B695B687B640C2310229446BC44634400221A6000225A6000229A600022DA6000221A610C23102202
:400880009446BC4463440D229A740C2310229446BC4463440A22DA7400233B657B6C1B78612B03D0622B00D1C6E0CBE0894B181C002105F03DF9874B5A68874B5B68D31A69
:4008C000181C04F037FF031C0C1C181C211C0022824B04F05BF8031C0C1C1D1C261C7D4B1A687D4B1B68D31A181C04F023FF031C0C1C281C311C1A1C231C03F01FFD031CA3
:400900000C1C1A1C231C3321102038184418101C191C03F0F5FC031C23700C231022BA18D2183B6DD218332310218C46BC4463441B78101C191C032200F0DCF83B6D033389
:400940000C2210218C46BC4462442C21D1543B6D04333B6500237B653EE07B6D181C03F013F8031C1A1C302310218C46BC4463441A80302310229446BC4463441B881BB212
:400980000020191C03F022F8031C1A1C2F2310218C46BC4463441A700C231022BA18D2183B6DD2182F2310218C46BC4463441B78101C191C032200F09DF83B6D03330C22A5
:4009C00010218C46BC4462442C21D1543B6D04333B657B6D01337B657B6D032BBDDD0C231022BA18D2183B6DD1183D4B1B683D4A134004D5013B0422524213430133081CA1
:400A0000191C012200F076F8354B1B680133354A134004D5013B04225242134301331A1C2F4B1A603B6D01330C2210218C46BC4462440A21D15405E0274B181C002105F0D0
:400A400077F8C046284B1A88202310218C46BC4463441A81202310229446BC44634414229A80202310229446BC4463440C2210218C46BC4462441A602C231022BA18D41898
:400A80001A4B20221021791889181A785B781B021A4300231204120C1B0C1B041343181C10F04EFE031C238005F098F82C2310229446BC4463441B88002B03D00C4B1B7806
:400AC000022BD9D03B699D46BD4617B0F0BDC046AC0B0020782100207021002000408F40E00F002003000080CE0F0020BC210020A821002090B587B000AFF860B9607A60E1
:400B000001237B6118E07A687B69D31AFA68D418BB68181C0A2103F0F7FA0B1CDBB23033DBB22370BB68181C0A2103F067FA031CBB607B6901337B617A697B689A42E2D9BE
:400B4000BD4607B090BDC04680B500AFBD4680BD80B500AF204B1B78022B1FD0032B00D038E0012002F006F91C4B1B685A1E1B4B1A601A4B1B68002B0FD1184B184A1A60AA
:400B8000184B1B7801225340DAB2164B1A70154B1B78181C02F0C8F81CE01BE0012002F0C3F8114B1B685A1E0F4B1A600E4B1B68002B0ED10C4B0D4A1A600A4B1B78012230
:400BC0005340DAB2074B1A70064B1B78181C02F0D1F8C046BD4680BDA8210020BC0B002030750000C00B0020C40B002050C3000080B500AF04F050FF031C1B680C2B00D1AE
:400C0000FEE7FEE780B586B000AF224B7B61224B3B61204B7B6135E03B691B68FB603B695B68BB603B699B683B6000237B600CE0FB681A68BB681A60BB680433BB60FB6898
:400C40000433FB607B6804337B607A683B689A42EED13B69DB683B6000237B6008E0BB6800221A60BB680433BB607B6804337B607A683B689A42F2D13B6910333B617B69B1
:400C8000013B7B617B69002BC6D104F00BFFFFF70DFBFEE701000000E87B010080B582B000AF154B144A126801218A431A6000237B600FE07B68032B04D8104B7A689200D0
:400CC000D35800E00E4B0F4A796889008B507B6801337B607B682F2BECD9FFF71BFA0A4B00221A60044B044A126801210A431A60BD4602B080BDC0460000104000000000BA
:400D0000F10B000000000020C000002080B582B000AF786039607A683B68101C00211A1C04F0FEFEBD4602B080BDC04680B500AF0B4B03221A600B4B03221A600A4B80227B
:400D400012061A60094BCC221A60094BCC221A60084B00221A60012000F00EF8BD4680BD300030403000314000003A4000033A4040033A40000E3F4080B584B000AF021C6B
:400D8000FB1D1A700B4B1B68FB60FB1D1B78002B05D0FB68802212061343FB6003E0FB685B005B08FB60034BFA681A60BD4604B080BDC04680033A4080B500AF194B0022FA
:400DC0001A70194B00221A70184B00221A70184B5A88184B1A80164B9A88164B5A80144B9A79144B1A73124BDA79124B1A71114B0622DA810F4B06221A820E4B00225A8200
:400E00000C4B64229A820B4B0022DA82094B012252421A83084B1E221A8000F00FF8BD4680BDC046CE210020B8210020CC210020C80B00208C210020A621002080B500AF33
:400E40000B4B1B88002B05D10A4B181C00210C2204F066FE064BDB88002B05D1064B181C0021062204F05CFE01F0D2FBBD4680BDE00B0020C0210020B0210020B0B594B0D3
:400E800004AF78603E23FB1800221A802823FA183A4B111C1A1C1423081C111C1A1C04F036FE374B1B78002B04D1FFF785FF344B01221A707B68002B55D0324B7A681A6085
:400EC0003E23FB181B88002B29D11023FB181C22BA185A601023FB182022BA181A601023FB1800221A812023FB181B221A802023FB181B225A802023FB1804221A711C23EF
:400F0000FB1800221A703E23FC181023FA180E23FB18101C191C04F03DFF031C23803E23FB181B88002B22D13E23FC1816481749AE231A012823FD1805230093002301937B
:400F4000002302932B1C04F07BFE031C23803E23FB181B88002B0AD10D4B01221A700D4B08221A7003E03E23FB1801221A803E23FB181B88181CBD4610B0B0BD30790100DC
:400F8000E40F00208821002031160000C8000020A8210020A921002090B585B000AF021CFB1D1A70FB1D1B78022B04D90E23FB1801221A8035E0FB1D1B78002B09D11C4B88
:400FC0000A221A811A4B30225A80194B30229A800EE0FB1D1B78012B0AD1154B96221A81134B802212015A80114BE122D2009A80104BFA1D12781A700E23FC180C4B181CE8
:401000000FF03CFD031C23800E23FB181B88002B07D1094B1B78DBB204221343DAB2064B1A700E23FB181B88181CBD4605B090BDC80B0020CC210020CE21002080B500AF62
:401040000FF048FD044B1B78DBB208221343DAB2014B1A70BD4680BDCE21002090B585B000AF7860294B1B78052B05D00E23FB180422FF321A8041E07B68002B04D10E2315
:40108000FB1801221A8039E00D23FB1800221A7012E00D23FB181B780D22BA1812787968895C1B4AD3180A1C5A710D23FB181A780D23FB1801321A700D23FB181B78052B23
:4010C000E7D97B689A79124BDA720E23FC18104B181C0FF079FC031C23800E23FB181B88002B0BD1094B04221A700A4B1B88002B04D0084B1B88181C0CF09AFB0E23FB189F
:401100001B88181CBD4605B090BDC046A82100208C210020A621002090B583B000AF104B1B78042B04D0BB1D0422FF321A8011E0BC1D0FF03BFC031C23800A4B1B88002B6A
:4011400001D00CF08FFBBB1D1B88002B02D1044B05221A70BB1D1B88181CBD4603B090BDA8210020A621002080B582B000AF78607B681B789AB27B6801331B789BB21B0259
:401180009BB213439BB2181CBD4602B080BDC04680B582B000AF78607B68DB880D4A934214D10D4B5B88002B08D17B689A880A4B5A807B689A78084B1A7007E0074B1B68CD
:4011C0007A68911D86225200101C9847BD4602B080BDC046052A0000B02100208821002080B582B000AF78607B689B880B4A934210D10B4B9B88002B04D17B685A88084BE9
:401200009A8007E0074B1B687A68111D86225200101C9847BD4602B080BDC04602290000B02100208821002080B582B000AF78600C4B5A887B689B899A420FD10A4B1B6824
:40124000832251007A68081C111C9847074B1B78DBB201229343DAB2044B1A70BD4602B080BDC046B021002088210020CE21002080B582B000AF7860BD4602B080BDC046EF
:4012800080B582B000AF7860BD4602B080BDC04680B582B000AF7860BD4602B080BDC04690B589B000AF7860394B1B78022B6BD1384B1B88002B67D00C23F918354B022271
:4012C0009B180422081C191C04F021FC7B685A687B681B891C1C0C23FB180433181C111C221C04F014FC0C23FB18181C01F004FA284B1B8801339AB20C23FB181A80264BE3
:401300001B78191C254A0B1C5B005B185B00D3185A880C23FB185A800C23FB181A880C23FB185B889A4221D81D4B0C22B9181A785B781B021A4300231204120C1B0C1B047C
:401340001343181C10F070F9031E12D0154B1B6884225200101C00219847134B1B78DBB202229343DAB2104B1A7002E0012000F0E9FB0D4B1B78DBB201229343DAB20A4B5E
:401380001A70044B00221A80BD4609B090BDC046A9210020E80F0020CD210020E00B0020BC21002088210020CE21002090B589B000AF7860394B1B78022B6BD1384B1B88EF
:4013C000002B67D00C23F918354B02229B180422081C191C04F09BFB7B685A687B681B891C1C0C23FB180433181C111C221C04F08EFB0C23FB18181C01F07EF9284B1B88FE
:4014000001339AB20C23FB181A80264B1B78191C254A0B1C5B005B185B00D3185A880C23FB185A800C23FB181A880C23FB185B889A4221D81D4B0C22B9181A785B781B02A8
:401440001A4300231204120C1B0C1B041343181C10F0EAF8031E12D0154B1B6884225200101C00219847134B1B78DBB202229343DAB2104B1A7002E0012000F063FB0D4B6A
:401480001B78DBB201229343DAB20A4B1A70044B00221A80BD4609B090BDC046A9210020E80F0020CD210020E00B0020BC21002088210020CE21002080B500AF094B002245
:4014C0005A70084B00221A70074B1B78052B03D1054B07221A7002E0034B08221A70BD4680BDC046BC210020A921002080B582B000AF78607B681B78032B3ED1254B1B7882
:40150000DBB21A1C0223134037D0234B1B78022B10D002DC012B05D024E0032B12D0042B18D01FE01D4B1B680822FF32101C0021984717E0194B1B6884225200101C0021BD
:4015400098470FE0154B1B680A22FF32101C0021984707E0114B1B6885225200101C00219847C0460B4B1B78DBB202229343DAB2084B1A70084B00221A707B681B78042BC3
:4015800005D1074B1B78042B01D1FFF7C5FDBD4602B080BDCE210020A921002088210020A821002080B500AFBD4680BD80B584B000AF78600E23FB1800221A707B689B791F
:4015C000002B1CD10F23FB1800221A7012E00F23FB181B787A68D35C002B04D00E23FB1801221A700BE00F23FB181A780F23FB1801321A700F23FB181B78052BE7D90E235A
:40160000FB181B78181CBD4604B080BD80B582B000AF021CBB1D1A80BD4602B080BDC04680B582B000AF7860BD4602B080BDC04680B586B000AF021C3960FB1D1A70C14BD9
:401640001B78DBB201221343DAB2BE4B1A70FB1D1B78712B00D95AE19A00BB4BD3181B689F460C23FB1807221A700C23FB1800225A700C23FB18181C06F038FA0C23FB1861
:4016800007221A700C23FB1801225A700C23FB18181C06F02BFAAD4B1B68181CFFF786FF031E05D0A94B1B68181C04F09BFA03E0A74B181C04F096FA03200FF08BF8082306
:4016C000FB183F221A700823FB1800225A700823FB18181C0FF09CF89E4B05221A7017E13B68181CFFF702FF12E13B681A789A4B1A700DE13B683B613B691B78002B18D14E
:401700003B695B78002B0BD1944B0022DA80934B00229A80914B924A1A603B698F4A5A60884B1B78DBB201229343DAB2854B1A70EEE0EDE0834B1B78DBB21A1C2023134026
:401740000ED1884B1B78102B02D1864B0522DA70854B1A78834B101C191C0EF075FED7E0D6E03B68181CFFF75BFFD1E03B68181CFFF756FF7D4B1B88002B01D00CF072F89E
:40178000744B02221A70C3E0724B05221A70BFE0704B1B78022B40D06A4B1B78DBB21A1C0123134039D0674B1B78DBB21A1C042313400BD0674B03221A70624B1B78DBB26B
:4017C00004229343DAB25F4B1A7026E05D4B1B78DBB21A1C082313400BD05E4B05221A70584B1B78DBB208229343DAB2554B1A7013E0584B1B78032B0FD1564B05221A7074
:401800005B4B1B78002B08D10120FFF7C5FB031E03D1504B03221A707AE079E03B681B88181CFFF7F3FE73E04F4A3B68111C1A1C0223081C111C1A1C04F069F9464B00229A
:401840001A704C4B00221A70FFF7ACFE60E0FFF733FE5DE03B685B88162B05D81623FB183A6852881A8003E01623FB1817221A803B681622BA1811881A8800231204120C10
:401880001B0C1B041343181C10F01CFA40E03B68181C00F073F83BE03B68181C00F06EFA36E000F04FFE33E03B68181C00F0FAFC2EE03B68181C00F095FE29E03B68181C3B
:4018C000FFF7DEFC24E03B68181CFFF7ADFC3B68181CFFF7DDFC1B4B1B78DBB21A1C0123134004D13B6818680FF038FE10E00FE03B68181CFFF7D4FC0AE03B68181CFFF765
:4019000055FD05E03B68181CFFF7B2FC00E0C0460C4B1B78DBB21A1C112313400FD0094B1B78DBB201229343DAB2064B1A70124B1B68FA1D11783A68081C111C9847BD46D3
:4019400006B080BDCE21002044790100DC0B0020D40B0020A8210020B821002000100020A80B0020F40B0020BC210020A6210020CC210020A92100208821002080B586B08E
:4019800000AF78600023FB60694B1B78012B00D0CAE0684B1B78DBB21A1C0223134000D1C2E00A23FB187A6812891A800A23FB181B88062B05D00A23FB181B88142B00D00F
:4019C000ABE00823FB187A6852891A801423FB1800221A808FE07B685A681423FB181B88D318FB601323FB1800221A70FB681A88514B1B889A4200D273E0FB681A884E4BA2
:401A00005B889A4200D96CE00A23FB181B88062B63D11623FB1800221A8053E01623FB181A884649131C5B009B185B00CB189A88FB689B889A423ED11623FB181A883F493E
:401A4000131C5B009B185B005B5A002B13D11623FB181A883949131C5B009B185B00FA68CB18111C0422181C04F051F81323FB1801221A701FE01623FB181B88012B0ED803
:401A80001623FB181B885A1C2C49131C5B009B185B00CB189A88FB689B889A420BD0284B1B68FA68111D0C22FF32101C98471323FB1801221A701623FB181A881623FB1852
:401AC00001321A801623FB181B88022B09D81323FB181B78002BA1D003E0FB68181C00F00BFE1423FB181422B9180A22BA18098812888A181A801423FA180823FB1812885A
:401B00001B889A4200D266E70A4B1B78DBB201229343DAB2074B1A7006E0094B1B680822FF32101C00219847BD4606B080BDC046A9210020CE210020AC210020E00B002000
:401B40008821002080B582B000AF021CFB1D1A70FB1D1B78002B06D0334B1B780133DAB2314B1A7005E0304B00221A702F4B00221A8005E02C4B1B780133DAB22A4B1A7053
:401B8000294B1B78022B19D8274B1B78191C284A0B1C5B005B185B009A5A264B1B889A42E8D3214B1B78191C214A0B1C5B005B185B009A5A1F4B5B889A42DBD81A4B1B78AE
:401BC000022B28D8184B1B781A1C131C5B009B185B00174A9918184B1A785B781B021A4300231204120C1B0C1B041343181C0FF01BFD031E15D0114B1B6884225200101C59
:401C0000002198470E4B1B78DBB202229343DAB20B4B1A7005E00B4B03221A70002000F08BFABD4602B080BDCD210020E80F0020E00B0020AC210020BC2100208821002071
:401C4000CE210020A921002080B582B000AF78607B68DB88434A934238D0424A934207DCA822920193420DD03F4A93421CD075E03E4A93424ED03D4A934239DB3C4A934295
:401C80005AD06BE03B4B1B88002B04D17B689A88384B1A8062E0384B1B687A68911D86225200101C984759E0324B5B88002B04D17B689A882F4B5A8050E02F4B1B687A6886
:401CC000911D86225200101C984747E0294B9B88002B04D17B689A88264B9A803EE0264B1B687A68911D86225200101C984735E0204BDB88002B04D17B689A881D4BDA8092
:401D00002CE01D4B1B687A68911D86225200101C984723E0174B1B89002B04D17B689A88144B1A811AE0144B1B687A68911D86225200101C984711E00E4B5B89002B04D170
:401D40007B689A880B4B5A8107E00B4B1B687A68911D86225200101C9847C046BD4602B080BDC046022A0000012A0000042A0000A62A0000C02100208821002090B593B033
:401D800000AF7860D14B1B78DBB21A1C0223134000D1CBE13E23FB187A6812891A803C23FB187A6852891A807B685B683B64C84B1B78032B00D0C2E04623FB1800221A801E
:401DC000B3E03B6C181CFFF7CFF9031C1A1C2423FB181A803B6C02333B643B6C1A782423FB189A703B6C01333B643B6C181CFFF7BBF9031C1A1C2423FB189A803B6C0233B2
:401E00003B643E23FB181B88152B34D12423FB1802229A752423FB180622396C9B181022181C03F074FE3B6C10333B64A94B1B78191CA94A0B1C5B005B185B00D3189B88DF
:401E40001A1EA64B9A4214D0A24B1B78012B0FD9A04B1B78022B0BD89E4B1B789BB2023B9AB22423FB18101C191C00F0ADFC01E000E0C04647E03E23FB181B88072B42D167
:401E80002423FB1801229A753B6C181CFFF76CF9031C1A1C2423FB18DA803B6C02333B648C4B1B78191C8C4A0B1C5B005B185B00D3189B88C0225201934203D0884A934285
:401EC00006D00BE02423FB18181CFFF7BDFE1AE02423FB18181CFFF75BF914E07D4B1B78012B0FD97B4B1B78022B0BD8794B1B789BB2023B9AB22423FB18101C191C00F06C
:401F000063FCFFE7C046714B1B78DBB201229343DAB26E4B1A704623FB184622B9183E22BA18098812888A181A804623FA183C23FB1812881B889A4200D242E7F6E0644BDE
:401F40001B78022B00D0F1E04623FB1800221A80E3E03B6C181CFFF707F9031C1A1C0C23FB181A803B6C02333B643B6C181CFFF7FBF8031C1A1C0C23FB185A803B6C023377
:401F80003B643B6C181CFFF7EFF8031C1A1C0C23FB189A803B6C02333B643E23FB181B88062B30D10C23FB1802229A750FF0B8FB0C23FB1859884B4B1A785B781B021A4396
:401FC00000231204120C1B0C1B041343181C0FF049FB031E07D1444B0C22BA1813CA13C313CA13C387E0414B1B6884225200101C00219847354B1B78DBB202229343DAB2C9
:40200000324B1A7077E03E23FB181B88082B00D071E00C23FB1801229A753B6C181CFFF7A3F8031C1A1C0C23FB18DA803B6C02333B644423FB1800221A8033E04423FB18C8
:402040001A882549131C5B009B185B00CB189A880C23FB18DB889A421DD14423FB181A881D49131C5B009B185B005B5A002B12D14423FB181A881849131C5B009B185B0052
:402080000C22BA180220C91813180422081C191C03F03DFD0BE04423FB181A884423FB1801321A804423FB181B88022BC6D9094B1B78191C084A0B1C5B005B185B00D31866
:4020C0009B881A1E0A4B9A4214D014E0CE210020A9210020CD210020E00B0020FEFF000001180000BC210020E80F00208821002012180000C0460F4B1B78DBB201229343D4
:40210000DAB20C4B1A704623FB184622B9183E22BA18098812888A181A804623FA183C23FB1812881B889A4200D212E7BD4613B090BDC046CE21002080B582B000AF021CB7
:40214000FB1D1A70FB1D1B78002B06D0354B1B780133DAB2334B1A7002E0324B00221A7005E0304B1B780133DAB22E4B1A702D4B1B78022B19D82B4B1B78191C2A4A0B1C73
:402180005B005B185B009A5A284B1B889A42E8D3244B1B78191C244A0B1C5B005B185B009A5A224B5B889A42DBD81E4B1B78022B2FD81C4B1B78181C1D491B4A031C5B00EA
:4021C0001B185B00087849780902084300210004000C090C09040143985AD3185B881B04034300221A1C081C111C0FF0D5F9031E15D0104B1B680A22FF32101C002198471B
:402200000D4B1B78DBB202229343DAB20A4B1A7005E00A4B04221A70002000F0E5F8BD4602B080BDCD210020E00B0020AC210020BC21002088210020CE210020A921002033
:4022400080B582B000AF3B1C00221A803B1C00225A80114B1B78002B09D1104B5B8801339AB23B1C1A800E4B1A893B1C5A803B1D3A1C12681A603A1D002311880904090C3B
:402280001B0C1B040B43528812041B041B0C1343181CBD4602B080BDCD210020B0210020E00B002080B58AB000AF78600823FB1800225A80494B1B78042B00D08BE0484B7A
:4022C0001B78DBB21A1C0223134000D183E01E23FB187A6812891A807B681A7B0823FB181A750823FB187A6812881A800823FB181B7D012B04D12623FB1804221A8003E002
:402300002623FB1812221A807B685B683B622423FB1800221A804EE03B6A181CFEF724FF031C1A1C0823FB185A803B6A02333B620823FB181B7D022B15D10823FB183A6A4C
:402340000433111C1022181C03F0E1FB3B6A10333B62244B1B78012B23D10823FB18181C00F0F8FB1DE03B6A181CFEF7FDFE031C1A1C0823FB189A803B6A02333B62194B7A
:402380001B78002B04D10823FB18181CFEF728FF144B1B78012B04D10823FB18181C00F0D9FB2423FB182422B9182622BA18098812888A181A802423FA181E23FB1812889A
:4023C0001B889A42A8D3064B1B78DBB201229343DAB2034B1A70BD460AB080BDA9210020CE210020CD21002080B584B000AF021CFB1D1A700C23FB1800221A800C23FB18FC
:4024000000225A80494B1B78012B17D0FB1D1B78002B0DD0454B1B780133DAB2434B1A70424B1B78012B09D1FB1D00221A7005E03E4B00221A70FB1D01221A703B4B1B78D6
:40244000012B0CD1FB1D1B78181C00F0C1FA031C1A1C0C23FB181A60FB1D01221A70334B1B78012B06D0FFF7EBFE031C1A1C0C23FB181A600C23FB181A882D4B1B889A4215
:4024800015D90C23FB181A88294B5B889A420ED80C23FB185A88264B1B889A4207D30C23FB181A880C23FB185B889A4203D91F4B1B78012BA6D91D4B1B78012B21D81D4B52
:4024C0000C22B9181A785B781B021A4300231204120C1B0C1B041343181C0FF047F8031E21D0154B1B6885225200101C00219847124B1B78DBB202229343DAB20F4B1A7098
:4025000011E00F4B05221A700B4B1B681222FF32101C00219847094B1B78DBB202229343DAB2064B1A70BD4604B080BDCD210020AC210020BC21002088210020CE2100209C
:40254000A921002080B500AF244B1B78DBB21A1C022313403FD0224B1B78022B17D002DC012B05D037E0032B1DD0042B27D032E01B4B02221A700020FFF7E4FA174B1B78E7
:40258000DBB201229343DAB2144B1A7023E00120FFF7D8FA114B1B78DBB201229343DAB20E4B1A7017E00120FFF7C6FD0B4B1B78DBB201229343DAB2084B1A700BE001209B
:4025C000FFF712FF054B1B78DBB201229343DAB2024B1A70C046BD4680BDC046CE210020A921002080B582B000AF7860074B1B78DBB21A1C0223134005D07B689B790A2BB4
:4026000001D1FFF79FFFBD4602B080BDCE21002080B582B000AFBB1D00221A8060E0BB1D1B889A1C3249131C5B009B185B005B5A002B50D13B1D00221A8040E0BB1D1B8855
:402640002C4A1B01D31808335A683B1D1B881B01D31800221A80BB1C00221A8019E0BB1D1B88244A1B01D31808335A683B1D1B881B01D318D968BB1C1A88131C5B009B18B0
:402680009B00CB1800221A80BB1C1A88BB1C01321A80BB1D1B88174A1B01D31808335A683B1D1B881B01D3189B7A9BB2BA1C12889A42D4D33B1D1A883B1D01321A80BB1D95
:4026C0001B880C4A1B01D31808335B789BB23A1D12889A42B2D3BB1D1A88BB1D01321A80BB1D1B88002B9AD0BD4602B080BDC046E00B0020180C002080B584B000AF7860C7
:402700000D23FB1800221A700E23FB1800221A8046E00E23FB181B88284A1B01D31808331B78022B35D10E23FB181B88234A1B01D3185A687B680433101C191C102203F066
:40274000D7F9031E25D10E23FB181B889A1C1C49131C5B009B185B005B5A002B19D10E23FB181B889A1C1649131C5B009B185B007A68CB18111C0422181C03F0C8F9114B1E
:402780001B780133DAB20F4B1A700D23FB1801221A700E23FB181A880E23FB1801321A800E23FB181B88002B04D10D23FB181B78002BAED0BD4604B080BDC046180C002057
:4027C000E00B0020CD21002080B584B000AF021C3960BB1D1A800D23FB1800221A70774B1B68002B0FD0764B1B88BA1D12889A4206D1724B1B683A681288013A92B21A8024
:402800006E4B00221A600E23FB1800221A80ADE00C23FB1800221A703B689B7D022B28D1BB1D1B88674A1B01D31808335A680E23FB181B881B01D3181B7A022B19D1BB1D45
:402840001B88604A1B01D31808335A680E23FB181B881B01D3185A683B680633101C191C102203F045F9031E03D10C23FB1801221A703B689B7D012B28D1BB1D1B88514ADD
:402880001B01D31808335A680E23FB181B881B01D3181B7A012B19D1BB1D1B88494A1B01D31808335A680E23FB181B881B01D3185A683B680633101C191C022203F018F954
:4028C000031E03D10C23FB1801221A700C23FB181B78012B43D1BB1D1B883A4A1B01D31808335A680E23FB181B881B01D3181B88002B34D1BB1D1B88324A1B01D3180833E2
:402900005A680E23FB181B881B01D3183A6892881A80BB1D1B882B4A1B01D31808335A680E23FB181B881B01D3183A6892785A72BB1D1B88234A1B01D31808335A680E231A
:40294000FB181B881B01D3189A1C1C4B1A601C4BBA1D12881A800D23FB1801221A700E23FB181A880E23FB1801321A80BB1D1B88144A1B01D31808335B789BB20E22BA186D
:4029800012889A4205D20D23FB181B78002B00D13EE70A4B1B68002B0CD0084B1A680A4B1B78181C0949031C5B001B185B00CB185B881380BD4604B080BDC0460C1000201A
:4029C00010100020180C0020CD210020E00B002080B584B000AF021CFB1D1A700823FB1800221A800823FB1800225A80FB1D1B78002B2DD0524B1B880133524A1288524916
:402A000012018A1808325278934206D24C4B1B8801339AB24A4B1A8023E04A4B1B88013309D1484B1B8801339AB2464B1A80444B00221A8015E0454B1B780133DAB2434B6C
:402A40001A703F4B1B8801339AB23D4B1A8008E03C4B00221A803A4B00221A80FB1D01221A70384B1B88384A1B01D31808335B789AB2334B1B889A421FD9324B1B88324A32
:402A80001B01D31808335A682D4B1B881B01D3181B8801339AB20823FB181A80294B1B88294A1B01D31808335A68254B1B881B01D3185A880823FB185A800823FB181A8873
:402AC000234B1B889A4215D90823FB181A88204B5B889A420ED80823FB185A881C4B1B889A4207D30823FB181A880823FB185B889A420CD9134B1B88134A1B01D3180833C9
:402B00005B789AB20E4B1B889A4200D96EE70C23FB180822BA1812681A600C23FA18002311880904090C1B0C1B040B43528812041B041B0C1343181CBD4604B080BDC046D1
:402B40000A10002008100020180C0020CD210020AC21002080B584B000AF78600E23FB1800221A700F23FB1800221A70BBE00D23FB1800221A707B681B7D022B38D1674BE6
:402B80001B88674A1B01D31808335A68654B1B881B01D318D9680F23FB181A78131C5B009B189B00CB181B7A022B21D15B4B1B885B4A1B01D31808335A685A4B1B881B0186
:402BC000D318D9680F23FB181A78131C5B009B189B00CB185A687B680433101C191C102202F086FF031E03D10D23FB1801221A707B681B7D012B38D1484B1B88484A1B01B8
:402C0000D31808335A68474B1B881B01D318D9680F23FB181A78131C5B009B189B00CB181B7A012B21D13D4B1B883D4A1B01D31808335A683B4B1B881B01D318D9680F2391
:402C4000FB181A78131C5B009B189B00CB185A687B680433101C191C022202F049FF031E03D10D23FB1801221A700D23FB181B78012B31D1294B1B88294A1B01D3180833A4
:402C80005A68284B1B881B01D318D9680F23FB181A78131C5B009B189B00CB181B88002B1AD11E4B1B881E4A1B01D31808335A681C4B1B881B01D318D9680F23FB181A7808
:402CC000131C5B009B189B00CB187A6852881A800E23FB1801221A700F23FB181A780F23FB1801321A700D4B1B880D4A1B01D31808335A680B4B1B881B01D3189B7A0F225D
:402D0000BA1812789A4205D20E23FB181B78002B00D12CE7BD4604B080BDC04608100020180C00200A10002080B584B000AF021CFB1D1A700E4B1B68DAB20F23FB18022146
:402D40008A431A70FB1D1B78DB18DBB202221340D9B20F23FB180F22BA1812780A431A70034B0F22BA1812781A60BD4604B080BD0000044080B584B000AF021CFB1D1A70C1
:402D80000D4B1B68DAB20F23FB1801218A431A70FB1D1B7801221340D9B20F23FB180F22BA1812780A431A70034B0F22BA1812781A60BD4604B080BD0001044080B500AF27
:402DC00000F028F9BD4680BD80B500AF064B064A1268802109060A431A6000F033F800F039F8BD4680BDC0460000244080B500AF064B1B78002B04D1FFF7E0FF034B012218
:402E00001A70FFF7E1FFBD4680BDC0461410002080B500AF092000F0A1FB00F021F8074B064A1268520052081A60054B00221A60092000F0A7FBBD4680BDC0460000244073
:402E4000880F244080B500AF092000F073FBBD4680BDC04680B500AF00F062F9BD4680BD80B500AF00F076F9BD4680BD80B500AF092000F073FB0E4B1A680E4B1A600E4B42
:402E800000221A700D4B0D4A1268802149020A431A600A4B094A126809490A401A60094B094A1A60092000F045FBBD4680BDC046D8210020E0310020DD31002004032440AF
:402EC000FFFFFEFFC00F2440ED0F000080B584B000AF78601D4B1A681D4B1B689A4209D11C4B1B681F221340082B03D01A4B7A681A6028E0154B1B680133FB60FA68802369
:402F00001B019A4201D10023FB60C046104B1B68FA689A42FAD0114B02221A607B68D9B20F4AFB68D3180A1C1A70084BFA681A600C4B1B680222134005D10A4B094A126826
:402F400002210A431A60BD4604B080BDD4210020D02100200802244040022440800F2440DC210020880F244080B582B000AF0E4B1B683B600D4B1A683B689A4205D30B4B1A
:402F80001A683B68D31A7B6008E0084B1A683B68D31A80221201944663447B607B68181CBD4602B080BDC046D0210020D421002080B500AF092000F0D1FA0F4B1A680F4B93
:402FC0001A600F4B0E4A126802218A431A600D4B0C4A1268802149020A431A60094B094A126809490A401A60084B094A1A60092000F0A0FABD4680BDD0210020D421002076
:40300000880F244004022440FFFFFEFF800F2440F307000080B500AF284B294A1A60294B00221A60284B01221A60284B284A1A60284B07221A60284B00221A60274B0122C6
:403040001A60274B224A1A60264B00221A60264B04221A60092000F081FA0920032100F015FA224B0920191C00F0EAF9204B00221A60204B00221A601F4B00221A601F4B64
:4030800000221A601E4B04221A601E4B00221A601C4B1B689AB21C4B1A801C4B00221A601B4B00221A601B4B00221A701A4B00221A601A4B00221A60BD4680BD0000244072
:4030C0000F00000240002440480024400003244007000080040324401003244044002440000224400402244050002440B13A0000880E2440C80E2440480F2440080F24401E
:40310000C80F2440880F244016100020E0310020D8210020DD310020D4210020D021002080B500AF074B074A126807490A40902109040A431A60054B054A12881A60BD469F
:4031400080BDC04600000240FFFF0FFF880F24401610002080B500AF084B084A126808490A401A60074B1B689AB2E423DB0013409AB2054B1A80BD4680BDC0460000024051
:40318000FFFF0FFF880F24401610002080B584B000AF78600023FB6009E07A68FB68D3181B78181CFFF792FEFB680133FB607A68FB68D3181B78002BEFD1BD4604B080BD5A
:4031C00090B585B000AF78600C23FC1800F069FC031C23707B68022B00D8B4E07B68302B00D9B0E05E4B1B78DBB21A1E7B689A420AD35C4A0F23FB1812781A705A4A0E23F0
:40320000FB1812781A703FE0584B1B78DBB21A1E7B689A420AD3564A0F23FB1812781A70544A0E23FB1812781A702DE0524B1B78DBB21A1E7B689A420AD3504A0F23FB1845
:4032400012781A704E4A0E23FB1812781A701BE04C4B1B78DBB21A1E7B689A420AD34A4A0F23FB1812781A70484A0E23FB1812781A7009E0464A0F23FB1812781A70454A8C
:403280000E23FB1812781A707B68DA1E0B23FB1841498A5C1A700B23FB181B782F2B0DD97B682A2B0AD93D4B19221A60052000F0EFFB0D23FB1819221A7007E0374B1B6841
:4032C000DAB20D23FB183F210A401A700B23FA180D23FB1812781B789A4208D22F4B7A68033A2D498A5C1A60052000F0D1FB7B68284A9A180A23FB1812781A70284B0A222B
:40330000BA1812781A60274B0F22BA1812781A60254B0E22BA1812781A60052000F074F90B23FA180D23FB1812781B789A4209D91A4B7A68033A18498A5C1A60052000F08E
:40334000A7FB03E002E0002000F030F90C23FB181B78181C00F0A9FBBD4605B090BDC04640F3FF0F41F3FF0F42F3FF0F43F3FF0F44F3FF0F45F3FF0F46F3FF0F47F3FF0FE1
:4033800048F3FF0F49F3FF0F4AF3FF0F4BF3FF0F4CF3FF0F4DF3FF0F3C7B01002CFF0B4028FF0B401CFF0B4020FF0B4080B584B000AF78600023FB60154B154A126801210F
:4033C0000A431A60134B144A1A60144B134A1268802109020A431A607B68002B12D01023FB600CE0012000F00FF900F019F8031E02D00023FB6005E07B68013B7B607B6870
:40340000002BEFD1FB68181CBD4604B080BDC04660F02E4078002E400220000010002E4080B582B000AF054B1B68012213407B607B68181CBD4602B080BDC0460C002E4009
:4034400080B584B000AF021C3960FB1D1A7080239B05FB60FB1D1B781F2B02D9002000F0A5F8FB1D1B7810339B00FA68D3181B68BB60FB1D1B7810339B00FA68D3183A68D4
:403480001A60BB68181CBD4604B080BD90B587B000AF021CFB1D1A70BB1D0A1C1A70BB1D1B78032B02D9002000F080F8FB1D1B781F2B02D9002000F079F8FB1D1B780322B7
:4034C0001340DB0006337B611323FC1800F0E9FA031C2370FB1D1B789B08DBB29B00144A944663441B68FB607B6903229A40131CDA43FB681340FB60BB1D1A787B699A401F
:40350000131CFA681343FB60FB1D1B789B08DBB29B00074A94466344FA681A601323FB181B78181C00F0C1FABD4607B090BDC04600E400E080B582B000AF021CFB1D1A70C3
:40354000054BFA1D12781F210A40012191400A1C1A60BD4602B080BD00E100E080B582B000AF021CFB1D1A70054BFA1D12781F210A40012191400A1C1A60BD4602B080BDB4
:4035800080E100E080B582B000AF021CFB1D1A70054BFA1D12781F210A40012191400A1C1A60BD4602B080BD80E200E080B582B000AF021CFB1D1A7001BEBD4602B080BD2B
:4035C00080B582B000AF786009E00C4B1B68181C00F05EFA7B680A4A944663447B607A6880231B029A42F0D8064B1B687A685343181C00F04DFABD4602B080BD340C0020BC
:403600000080FFFF2C0C002080B582B000AF021CBB1D1A80BB1D1B88044A12785343181C00F036FABD4602B080BDC046300C002080B500AF0E4B0E4A126801218A431A6005
:403640000B4B0B4A126802218A431A60094B094A126830218A4310210A431A60054B054A126807218A4301210A431A60BD4680BD00F02E4000FF2E4080B500AF0E4B0E4AED
:40368000126802218A431A600C4B0C4A126807218A4302210A431A60084B084A126830218A4320210A431A60034B034A126801210A431A60BD4680BD00F02E4000FF2E40D2
:4036C00080B500AFFFF7B4FF044B044A1268802109060A431A60BD4680BDC04600F02E4080B584B000AF78600C4B1B6801221340FB607B68002B02D0012B03D005E0FFF7B6
:4037000097FF06E0FFF7B8FF03E00020FFF74EFFC046FB68181CBD4604B080BD00F02E4080B500AF064B1B78002B04D100F00AF8034B01221A7000F00BF9BD4680BDC0463C
:403740001C10002080B584B000AF0F200321FFF79DFE624B0F20191CFFF772FE604B0F221A60604B1B68002B01DA5F4900E05F495F4B5F4A12680A431A605E4B5E4A1A6071
:403780005E4B5F4A1A605F4B00221A605E4B5F4A1A605F4B5D4A1A605E4B5E4A1268802149020A431A605C4B5B4A1268802149020A431A60594B00221A60594B00221A60E9
:4037C000584B01221A60584B1B687B607B68574A13407B607B688022920513437B607B68012293437B60504B7A681A600023FB606EE04F4BFA689200D258DC239B01134069
:403800007B604C4AFB68D3181B781A1C7B6813437B60FB689B00484A944663447A681A60434BFA689200D3580122134009D03B4B3A4A1268F96801208840011C89B20A4310
:403840001A603B4BFA689200D3580222134009D0334B334A1268F96801208840011C89B20A431A60324BFA689200D25880239B00134003D080235B00BB6002E080235B0102
:40388000BB602B4BFA689200D25880235B00134005D12A4BFA6852000021D15204E0274BFA6852000021D152BB68254A5343254A94466344181C244900F030FC031C9BB236
:4038C00019B2224BFA689200D150FB680133FB60FB68032B8DD9BD4604B080BD713A000020003A4080033A40702010107020001000003A4004003A40CC00008018003A4036
:403900000000FF071C003A4010003A400200020014003A4000033A4040033A4028023A4038023A4018023A4030003A40FFFFFFDF6C7B01007C7B010080003A40F431002004
:4039400010270000E40C0000C8190000E431002080B500AF0A4B1B68002B0EDBC046094B1B68002BFBDB064B054A1268802109060A431A600A20FFF747FEBD4680BDC04620
:4039800000003A4008023A4080B584B000AF78607B68032B02D90020FFF708FE7B68032B09D87B689B00084A944663441B681B041B0CFB6001E00023FB60FB689BB21BB2CE
:4039C000181CBD4604B080BD80013A4080B584B000AF78600A1CBB1C1A807B68032B02D90020FFF7E3FD1F4B7A685200D35A99B2BB1C1A888BB2D31A9AB2BB1C1A80BB1CEE
:403A000000229B5E184A5A43BB1C00215B5E002B08DD164B79688900CB58002B00DA01335B1008E0114B79688900CB58002B00DA01335B105B42D1180C4B7A689200D35828
:403A4000081C191C00F06AFB031C1A1C0E23FB181A800E23FB181B881BB2181CBD4604B080BDC046F431002010270000E431002080B582B000AF044B1B687B60024B7A68E0
:403A80001A60BD4602B080BD10023A40000000000230800803D00138FDD1C046C046C0467047EFF3108072B6704780F31088704780B582B000AF344B1B68002B02D0324B0C
:403AC0001B689847314B1B680422134027D0304B1B6801337B607B682E4A934201D100237B602D4B1B687A689A4205D12B4B1B682B4B20221A700AE0284B1B68D9B2294A40
:403B00007B68D3180A1C1A70214B7A681A60264B1B681F221340DAD1244B04221A60244B1B68022213402BD0224B1A68224B1B689A4215D0204B1B6801333B603A688023F7
:403B40001B019A4201D100233B601C4B1C493A688A181278D2B21A60174B3A681A6006E0184B184A126802218A431A6005E0164B1B681F221340082BD6D1144B02221A60E4
:403B8000BD4602B080BDC04618100020CC0F2440E031002001080000D821002040032440DD310020DC29002008032440C00F24408C0F2440D4210020D021002040022440CC
:403BC000DC210020880F244008022440800F244080B582B000AF78600A1CBB1C1A80BB1C1A887B681A60BD4602B080BD80B582B000AF78600A1CBB1C1A80BB1C1A887B681E
:403C00001A60BD4602B080BD80B584B000AF494B1B78DBB21B02484A1278D2B21343FB60464B1B78DBB21B02454A1278D2B21343BB60BB68434A934207D1FB68072B04D13B
:403C4000414BBB600423FB6009E0BA68D4231B019A4204D1FB68042B01D13B4BBB603B4BBA681A603A4BFA681A603A4B1B78DBB21B02394A1278D2B21343FB60FA688023BB
:403C80009B019A4202D0FB68002B01D1334BFB60334BFA681A60334B1B78DBB21B02324A1278D2B21343FB60FB68304A934206D0FB682F4A934202D0FB68052B01D12D4B49
:403CC000FB602D4BFA681A602C4B1B681B097B602B4B1B68AA2B29D17B68012B26D9214B1B78DBB20E2B21D1264B1B78DBB29BB21B0299B2244B1B78DBB29AB2BB1C0A434A
:403D00001A80224BBA1C12881A60214B1B78DBB29BB21B0299B21F4B1B78DBB29AB23B1C0A431A801C4B3A1C12881A60BD4604B080BDC04659F1FF0F58F1FF0F5FF1FF0F65
:403D40005EF1FF0F580B0000580D00006C002E4074002E405BF1FF0F5AF1FF0F0220000078002E405DF1FF0F5CF1FF0F0F0F000005050000050F000080002E40EC0F00F0DB
:403D8000E00F00F06DF2FF0F6CF2FF0F84002E406FF2FF0F6EF2FF0F94002E4080B582B000AF021CBB1D1A80BB1D1B88181CFFF72BFCBD4602B080BD80B582B000AF786028
:403DC0007B68181CFFF7FCFBBD4602B080BDC04680B500AF00F0DEF8BD4680BD80B500AF00F0E2F8BD4680BD80B500AF00F0DCF8044B181C00F09CF8032000F0A5F8BD468D
:403E000080BDC046F13F000080B500AF024B181C00F07CF8BD4680BDF13F000080B500AF014B181CBD4680BD0102000080B582B000AF78602B23181CBD4602B080BDC046C7
:403E400080B582B000AF78602B23181CBD4602B080BDC04680B582B000AF78602B23181CBD4602B080BDC04680B582B000AF78602B23181CBD4602B080BDC04680B582B0A3
:403E800000AF78602B23181CBD4602B080BDC04680B582B000AF78602B23181CBD4602B080BDC04680B582B000AF78602B23181CBD4602B080BDC04680B582B000AF786043
:403EC0002B23181CBD4602B080BDC04680B500AF2B23181CBD4680BD80B582B000AF021CFB1D1A702B23181CBD4602B080BDC04680B582B000AF786039602B23181CBD4646
:403F000002B080BD80B500AFBD4680BD80B582B000AF786000F048F87B68181C00F008F8032000F011F800F035F8BD4602B080BD80B582B000AF7860024B7A681A67BD467D
:403F400002B080BD0000002090B585B000AF021CFB1D1A700623FB600B23FC18FFF7A1FD031C23700A4B0A4A1268C0218A43111CFA1D1078FA689040021C0A431A600B235B
:403F8000FB181B78181CFFF790FDBD4605B090BD0CE400E080B500AF024B802252011A60BD4680BD00E100E080B500AF024B802252011A60BD4680BD80E100E090B583B095
:403FC00000AFFC1DFFF76DFD031C2370074B074A126804218A431A6030BFFB1D1B78181CFFF763FDBD4603B090BDC04610ED00E080B500AF13F0C6FABD4680BD0022430800
:404000008B4274D303098B425FD3030A8B4244D3030B8B4228D3030C8B420DD3FF22090212BA030C8B4202D31212090265D0030B8B4219D300E0090AC30B8B4201D3CB03DA
:40404000C01A5241830B8B4201D38B03C01A5241430B8B4201D34B03C01A5241030B8B4201D30B03C01A5241C30A8B4201D3CB02C01A5241830A8B4201D38B02C01A524105
:40408000430A8B4201D34B02C01A5241030A8B4201D30B02C01A5241CDD2C3098B4201D3CB01C01A524183098B4201D38B01C01A524143098B4201D34B01C01A5241030913
:4040C0008B4201D30B01C01A5241C3088B4201D3CB00C01A524183088B4201D38B00C01A524143088B4201D34B00C01A5241411A00D20146524110467047FFE701B500206A
:4041000000F0FCF802BDC0460029F7D003B5FFF775FF0EBC4243891A1847C04603460B437FD4002243088B4274D303098B425FD3030A8B4244D3030B8B4228D3030C8B4254
:404140000DD3FF22090212BA030C8B4202D31212090265D0030B8B4219D300E0090AC30B8B4201D3CB03C01A5241830B8B4201D38B03C01A5241430B8B4201D34B03C01AAD
:404180005241030B8B4201D30B03C01A5241C30A8B4201D3CB02C01A5241830A8B4201D38B02C01A5241430A8B4201D34B02C01A5241030A8B4201D30B02C01A5241CDD203
:4041C000C3098B4201D3CB01C01A524183098B4201D38B01C01A524143098B4201D34B01C01A524103098B4201D30B01C01A5241C3088B4201D3CB00C01A524183088B422B
:4042000001D38B00C01A524143088B4201D34B00C01A5241411A00D201465241104670475DE0CA0F00D04942031000D34042534000229C4603098B422DD3030A8B4212D3F2
:40424000FC22890112BA030A8B420CD3890192118B4208D3890192118B4204D389013AD0921100E08909C3098B4201D3CB01C01A524183098B4201D38B01C01A52414309AA
:404280008B4201D34B01C01A524103098B4201D30B01C01A5241C3088B4201D3CB00C01A524183088B4201D38B00C01A5241D9D243088B4201D34B00C01A5241411A00D23A
:4042C0000146634652415B10104601D34042002B00D54942704763465B1000D3404201B5002000F00BF802BD0029F8D003B5FFF715FF0EBC4243891A1847C0467047C0462A
:4043000038B500220C4B041C0D1C01F083FA002804D1201C291C01F0D7F938BD064B0022201C291C00F056FE01F0CEF980231B069C466044F1E7C0460000E041F0B54546C3
:4043400057464E4694464C000A03C90FE0B488460E1C1903470FC500480A6146490F01436046520A1743C0005A00640D520DDB0F8446984500D1A7E0A01A002800DC01E1DA
:40438000002A3DD163460B4300D0D4E06B0700D188E00F232B40042B00D183E02A1DAA42AD4180236D427F191B043B404646151C002B00D17CE0CC4B01349C4200D1FDE00D
:4043C0003A1CCA4BED081A405007640552020543120B640D002112030B0D1B056405120B1A436308C24CF60714401C43640064083443281C211C1CBC90469946A246F0BDB5
:40440000B94B9C42C2D080231B041943382800DDECE01F2800DD21E120220E1C6346121A9640C340334366469640321C561EB24113430A1CC240EB1A9D42B6411D1CBA1A8E
:404440007642971B3B0200D497E07A02560A002E00D1B6E0301C01F0E7F9031C083B1F2B00DDB7E09E40371C28262A1C361AF240161C9D403E439C4200DDB2E01C1B621CC3
:404480001F2A00DDD8E01F23291C1C1B331CA540A340D1406C1EA541D64019430D43371C002473E780231B043B40464600D082E78D4BED0878070543FA089C4232D01203A8
:4044C0006405120B640D85E7A31A002B00DC94E0002A3CD0844A944200D157E7802212041143382B00DC05E163461943481E81410022C8B24019A8429B41051CD2195B4276
:40450000D7183B0239D5784B01349C4200D14CE10120764A6B083A4028401843D5070543570833E72B1C134348D080231B031A431203120B4EE70138002878D16346EE1AAA
:40454000B5429B417A1A5B42D71A351C7AE7021C0A4300D11AE7013B002B00D0F2E04019A8429B41CA195B42D718051CC9E7131C334300D118E1171C351C46466B0700D02E
:4045800007E795E700287AD1621C5205520D012A00DCFBE06246AA1A9542B6419146781A7242861A320200D493E06246551BAC458041CF1B40423E1A984648E700220025B4
:4045C00008E7281C01F030F92030031C083B1F2B00DC47E7283885402E1C00259C4200DC4CE7424AE41A1640371CCFE6634619434B1E99410022CBB21DE7002B00D0F2E047
:40460000601C43055B0D012B00DCA4E0364B984200D121E163465C19AC429B41CF195B42FA186408D50725435708041CAEE62E4B9C4200D0EAE6A9E6211C331C1F39CB40DD
:40464000191C202A00D182E03F231C1BA64035436E1EB54100270D4300248EE7031C0E1C203BDE40202874D040231B1A99400B1C62461343591E8B4100223343DBE6002C53
:4046800050D0194CA24200D1A8E08024240440422743382800DDD9E01F2800DD39E120243E1C241AA640B0462E1CA146C640444626434C46A5406C1EA541C740354360465E
:4046C000451BCF1BAC45894149427F1A141C9846B8E64B464D46334300D0B8E60026002700240025E4E6C046FF070000FFFF7FFFFFFF0F801F2B5BDC2022081CD21A9040C5
:40470000814660469246D8404A4610438146524660469040021C501E8241484610430A1CDA40E7E63C1C2C4358D0C043002851D16046451BAC458041CF1B40423F1A141C3E
:4047400098467FE68F4A944200D0CAE61EE600267DE700238CE73B1C2B43002C00D0BDE0002B00D1F5E063460B4300D10EE663465B19AB428041CA19404217183A0200D449
:40478000FCE0814A1D1C17400134FFE53A1C2A43002C51D1002A00D085E062460A4303D00F1C65469846F1E50026002700257FE6181C0A1C2038C240202B00D1A7E0402059
:4047C000C01A8140081C63461843411E8841104300228FE66B4CA24200D05AE70F1C6546141C9846D2E5002C3AD1381C284371D0DB43002B18D0634882426BD0382B00DD4B
:404800009DE01F2B00DDA7E020203C1CC01A8440A1462C1C8246DC404846044350468540681E8541DF402543654465459B417F185B42FF18141C64E6002A19D162460A4304
:4048400077D00F1C654698464E4C9FE53D436F1EBD410027EDB232E7041C0027002527E64848824236D0802000045B420743C5E762460A4349D08024ED087807FA082403DC
:404880002843224209D0CE08264206D162464F07381CD20810439846321CD200470F1743C500384C72E562460A4300D16EE56246AE1AB5429241781A5242821A100200D473
:4048C00055E66246551BAC458041CA1B4042171A98465BE50F1C6546141C57E5002B34D063460B4311D08024ED087807FA08240328432242D1D0CB082342CED162464F072E
:40490000381CD20810431A1CC7E71E4C3EE5002059E7041C3E1C203CE640341C20282BD04026301A87403D436F1EBD4100272543C5E680270026FF03124C0025B8E53D436B
:404940006F1EBD410027EDB26EE70F1C65460D4C1CE50F1C654619E51C1C381C203CE040041C202B0CD04020C31A9F403D436F1EBD410027254357E70027D4E71D1CFCE54E
:404980000027F3E7FF070000FFFF7FFFF0B55F4656464D464446F0B40F0387B098464D003B0BCC0F061C924681469B466D0D01946BD0664B9D4235D080275B467F031F438B
:4049C000F3009946624BFF00400F9C4607430023BB46002665440093424617035000D20F53463F0B400D904600D172E0574A904267D080235B031F435346554A5B0FFF008E
:404A00001F43944653460021DB0060444246624092462D1A0E430F2E00D9A1E04D48B600805987465B461E4300D076E000239B469946023308260093CEE799464346BB46C0
:404A400001930091009B022B6BD1019B9A46002153460122002789461A403C4B00213F030C0D24053F0B27433B4C1B0527401F437F00D2077F0817434846391C07B03CBC49
:404A800090469946A246AB46F0BD03433ED05B46002B00D19CE1584600F0C6FE2823311C1B1A021C5F46D940083A97400B1C96403B439B46B1460023284D00262D1A00934E
:404AC0008AE7524603213A43A0D10027002302219CE752463A4315D0002F00D185E1381C00F0A2FE021C28215046891A131CC8405146083B99409F400B1C0743174800210D
:404B0000801A83E70027002301217FE700239B4699460133042600935EE703230C2600935AE7032B00D13CE2012B00D0BFE11A1C019B1A4000210023002789468EE70023A3
:404B40008027994600223F03004B87E7FF07000001FCFFFF807B0100FFFF0F800DFCFFFFBB4500D951E100D14CE14A46039200225C469046013D180E3F0238431B02019368
:404B8000030C994603041B0C4946061C201C1F1C0093FFF733FA021C7A4302904946201C171CFFF7B1FA039B09041B0C19438F420CD9029B8919013B8E4200D952E18F42E3
:404BC00000D84FE1029B8919023B0293CC1B201C4946FFF713FA009F834647434946201CFFF792FA039A0B041404240C23439F420DD95A469B19013A9E4200D930E19F424D
:404C000000D82DE10222524294469B19E344029ADB1B17045A463A439346019C170C220C101C04925A4611042204120C141C090C7C4305924A43414347436118100C0918E9
:404C40008C4203D980204002844667440C0C12040804120C3C198118A34200D2E5E000D1DFE01F1B43465C1AA04592415242BF1AB74200D10EE1381C4946FFF7BFF9009B9E
:404C8000029043434946381C9846FFF73DFA230C0F041F43B8450CD9029BBF19013BBE4200D9FBE0B84500D8F8E0029BBF19023B02934346FF1A4946381CFFF79FF9009B61
:404CC000039043434946381C9846FFF71DFA24040904240C214388450CD9039B8919013B8E4200D9DCE0884500D8D9E0039B8919023B03934346C91A029B039A1B04059C9A
:404D00001A43100C13049146221C049F1B0C5A4344437B437843E318170CDB199C4203D980246402A44660441C0C12041B04120C00199B18814200D296E000D1FCE04A4674
:404D400001231A4391469B4BEB18002B00DC99E04A4652070AD00F2249460A40042A05D00431494592418946524293445A46D20106D55A46904B1A4080239346DB00EB1855
:404D80008E4A934200DD62E64A465946D208490711435A4689465702514601225B053F0B5B0D0A405AE680205A460003024208D0074206D107433F0399463F0B4246804BCF
:404DC0004CE65F4607433F033F0B221C7C4B45E600F02AFD031C2030272800DC5EE6083B9E400023B346994665E6504600F01CFD021C2032272A00DC75E65746083887403F
:404E000000237BE6994500D2AFE65A46594654084A46C8075208024303924A46D2079046A9E60027884500D31CE7019F5A46BC46E044B845BF417F42BF19FF18013ABE4295
:404E400006D2BC425FD800D19FE03F1B934609E7B742FAD1019B4345F3D9371B934601E79346D4E60293B1E64A468919013A8E4218D99146814200D061E7019A9A4200D005
:404E80005DE760E74F4F7F1B382F13DD012253461A404FE601235B42994654E7029308E7039327E788423CD874D0914647E7019B9A4648E71F2F44DC434B4A469C465B46A9
:404EC0006544FA40AB4013434A46AA40151C6A1E95415A46FA402B43171C5A0709D00F221A40042A05D01A1D9A429B415B42FF18131C3A023ED55346012200211A400027C3
:404F000001238946AAE502235B429C46019AE3449446E04490459B415B429B19DF193F1BA0E6019F4A467C00BC42BF417F42BF19023AC91901949CE7002B95D100220192F2
:404F40009BE75A46214B5B1BDA40202F27D0204B9C465B466544AB4049460B43591E8B411343072200271A4007D00F2200271A40042AB8D17A077F023F0BDB081343994687
:404F8000012253461A40002368E54145BBD89346002767E6019C9C42C3D391466DE70023DAE780275B463F031F433F033F0B019A034B53E5FF030000FFFFFFFEFE0700004A
:404FC000FF07000002FCFFFF1E040000E2FBFFFF3E040000F0B54D4644465F465646F0B40E1C111C3203520A470F1743C5001A035800DB0F9946520A4B0F83B01A43CB001D
:405000000193CF4B7400F60F640DB046400D984200D1E8E00123494659400B1C9E4200D1B1E0261A002E00DC1CE1002842D1131C01990B4300D0E6E06B0700D18EE00F235B
:405040002B40042B00D189E02A1DAA42AD418023012641466D427F191B043B400E40151C002B00D183E0B64B01349C4200D116E13A1CB44BED081A4050076405520205434F
:40508000120B640D002112030B0D1B056405120B1A436308AC4CF60714401C43640064083443281C211C03B03CBC90469946A246AB46F0BDA24B9C42BED080231B041A43D8
:4050C000382E00DD03E11F2E00DD3FE12020831B9946131C49468B409C46019B6046F34003430198F2408840011C481E81410B43EB1A9D4280411D1CBA1A4042171A3B0294
:4051000000D4A8E07A02560A002E00D1CAE0301C00F08AFB031C083B1F2B00DDCBE02822291C121AD1409E400A1C9D4032439C4200DDC8E01C1B671C1F2F00DDEDE01F2320
:40514000291C1C1B131CA540A340F9406C1EA541FA4019430D43171C00246DE78023012642461B043B401640002B00D07BE7744BED0878070543FA089C423BD012036405FF
:40518000120B640D7EE7231A9A46002B00DCA5E0002844D06A48844200D14DE78020000402435346382B00DC1CE1019B1A43511E8A41D1B200224919A94280410D1CD219E2
:4051C000404217183B0246D55D4B01349C4200D169E101205B4A6B083A4028401843D5070543570828E7131C01990B4300D111E74B4613E72B1C134351D080231B031A4381
:405200001203120B3EE7013E002E00D080E0691A8D429B41BA1A5B42D71A0D1C6FE7101C019B184300D107E701235B429C46E2445346002B00D002E1019BD2195919A94265
:405240009B415B42D7180D1CBCE76346034300D128E1071C65466B0700D0F0E6012643461E4084E7002E00D081E0601C4005400D012800DC07E10199681A84466545B641F1
:40528000B81A7642861B300200D4A1E08C464D1BAC458941D21B4942561A984634E700220025EFE6281C00F0BFFA2030031C083B1F2B00DC33E7021C283A95402A1C0025AB
:4052C0009C4200DC36E71F4FE41A1740B4E6019B1A43511E8A41D3B2002209E7002B00D001E1601C43055B0D012B00DCB0E0144B984200D11EE1019BD2195919A9429B4146
:405300005B42D2184908D5070D435708041C93E60B4B9C4200D0D3E68EE6211C131C1F39CB40191C202F00D18EE03F231C1BA24015436A1E954100270D4300248BE7C0466A
:40534000FF070000FFFF7FFFFFFF0F80331C101C203BD840202E79D040239B1B9A40131C019A1343591E8B4100220343C0E6002C53D0C74CA04200D1B0E08024714289466A
:40538000240427434946382900DDCDE01F2900DD59E120243E1C611A8E408A46B04649462E1CCE405146B4468D4064464646494626436C1EA541CF4035430199D71B8C460D
:4053C0004D1BAC4592415242BF1A041C984696E663466546334300D096E60026002700240025C4E61F2B61DC2020C31A9B46131C59468B4051469946019BCB409C464B4696
:40540000604603439C465B46019999406346481E814119435346DA40CDE63C1C2C435DD0F1438946002955D10199D21B8C464D1BAC4589414942571A041C98465FE694481A
:40544000844200D0ADE6F7E5002271E7002387E73B1C2B43002C00D0DAE0002B00D113E1131C01990B4300D1E6E54919A9429B41D2195B42D7183B0200D421E1854B0D1C52
:405480001F40041CD8E5381C2843002C40D1002800D083E0101C0199084303D0171C0D1C9846C9E500260027002560E65046131C2038C340181C5346202B00D1C1E04023C8
:4054C00051465B1A9A40019911434A1E91410022014370E66E4CA04200D053E7171C019D041C9846A8E5002C28D13C1C2C4300D18AE0DB439A46002B00D082E0019BD219D7
:405500009C4665449D42894149425718041C59E600285BD1101C0199084300D1A4E0171C0D1C98465A4C87E53D436F1EBD410027EDB242E7041C0027002518E6544CA042F2
:4055400062D0534680245B429A46240427435346382B00DD8EE01F2B00DD9DE02024E31A9B463B1C59468B40514699462B1CCB409C464B46644623439C465B469D4063468B
:405580006C1EA541CF401D43019BBF189C4665449D4292415242BF18041C13E6101C0199084300D148E5681A844685428041BE1A4042301A060200D447E68C464D1BAC451D
:4055C0008941D21B4942571A984635E5101C0199084334D080247807ED08FF0824032843274208D0D608264205D1C90852070A43101C371C9846FF00420F1743C500244C2A
:405600001AE5234CA042A2D1171C019D041C13E5002B35D0131C01990B4310D080247807ED08FF08240328432742E4D0D3082342E1D1C90852070A43101C1F1CDBE7144CD7
:40564000FAE400223FE74C463E1C203CE6404946341C202932D04026761AB7403D436F1EBD4100272543A8E680270026FF03084C00257CE53D436F1EBD410027EDB283E773
:40568000171C019D024CD7E4171C019DD4E4C046FF070000FFFF7FFF54463B1C203CE3401C1C5346202B0DD0402351465B1A9F403D436F1EBD410027254365E70027CDE787
:4056C0000D1CC8E50027F3E70B0330B5134C1A0B4B00051C5B0DC90F0020A34210DD104883420EDC80200F4C40030243E41A1F2C0ADD0D48C31ADA40131C4842434058180C
:4057000030BD0A4BC818FBE7281CE040084CA44663449A40131C0343EFE7C046FE0300001D0400003304000013040000FFFFFF7FEDFBFFFF38B5041E16D0C50F00D0444200
:40574000201C00F071F8174B1B1A0A2821DC021C211C153291400A1C0B21081AC4405B052403240B5B0D03E000250023002400220021101C24030A0D1205240B14430A4AD8
:405780001B0514401C436400ED0764082C43211C38BD0B3884405B052403240B5B0D0022E6E7C0461E040000FFFF0F808446101C62468C46191C634600E0C0461FB500F0F0
:4057C00005F9002801D40021C8421FBD10B500F049F84042013010BD10B500F0F7F8002801DB002010BD012010BDC04610B500F0EDF8002801DD002010BD012010BDC04627
:4058000010B500F073F8002801DC002010BD012010BDC04610B500F069F8002801DA002010BD012010BDC0461C2101231B04984201D3000C10391B0A984201D3000A0839C7
:405840001B09984201D30009043902A2105C40187047C04604030202010101010000000000000000F0B55F464D4644465646F0B41F035C00DB0F99461B4B0E034D00C90F52
:405880008446360B6D0D8B4690463F0B640D9D420CD0154B9C4210D00123A54214D0181C3CBC90469946A246AB46F0BD311C01230143F4D10C4B9C42EED13A430123002A99
:4058C000EDD10123A542EAD1BE42E8D1C445E6D1CB4506D0002DE2D13043031C581E8341DDE70023DBE7C046FF070000F0B5574645464E46E0B40F034E00C90F8A463249EC
:405900001D035C0084463F0B760D90462D0B640DDB0F8E420FD08C4239D0002E10D13843414241418946002C27D12A4325D1002000290ED108E0391C01432ED1B44226D0EC
:40594000002C0BD09A450DD05346594201231943081C1CBC90469946A246F0BD2A43F3D09A45F1D1A642EFDC1ADA504641424841012341421943081CEBE74A46002AE1D0EC
:4059800058425841012241421143081CE1E7291C114302D1002EC2D0D4E702204042D8E7AF42D1D809D00020AF42D2D2504641424841012340421843CBE7C445C4D8002042
:4059C000C445F3D3C5E7C046FF070000F0B55F464D46444656468046F0B4061C0803000B84462C484C001F035D00C90F640D8B4691463F0B6D0DDB0F844212D0854225D06F
:405A0000002C14D161460E4370424641002D35D0002E21D058425841012143420B43181C0EE06146022031430AD1A5420ED0002D12D13A4310D15B46594201231943081C5E
:405A40003CBC90469946A246AB46F0BD391C02201143F5D1002CD5D09B45ECD1AC42EADC05DBBC45E7D80FD00020BC45E8D2584641424841414201200843E1E73A43C7D170
:405A80000020002EDCD1D6E7C845D4D80020C845EDD3D5E7FF070000014B18687047C046AC0F00200E4B70B500251E1C0D4CE41AA410A54204D0AB00F35898470135F8E7D5
:405AC00012F080F8084B00251E1C084CE41AA410A54204D0AB00F35898470135F8E770BDD07B0100D07B0100D07B0100D87B010030B50024944208D0035D651C0C5DA34284
:405B000001D0181B02E02C1CF4E7002030BD002310B5934203D0CC5CC4540133F9E710BD031C8218934202D019700133FAE7704708B5031C0A1C03490868191C00F004F80A
:405B400008BDC046AC0F002038B50023064C051C081C111C236000F009F8431C03D12368002B00D02B6038BDFC31002058220120014B40421A607047FC310020134A1088D5
:405B8000810703D08107890F401A001D11791030484381B25088820703D08207920F801A001D800040180A494030098980B2CA0701D0503080B2890706D504495422091F4D
:405BC00009785143081880B270470000420C00202C10002010B501F0AFFE10BD10B500F055FA10BD10B50749044609780220002907D1204601F0F0FE002802D120460AF019
:405C0000BBFE10BDC60D002070B504460120002C12D02368002B0FD0616800290CD0074D06222889208118462968FFF770FF6968606809780170002070BD00002C10002094
:405C4000FFB585B0002768460E9D07734F481C460078002802D0082009B0F0BD10990F9801900095029105A807C800F001F90028F2D16946264603AB84460873002C19D0CB
:405C8000002115E08A00B75A082F09D990198078002805D0083FB7521878401C187005E0002914D00027B75290198770491CC9B2A942E7D360460028CED10F98002809D05C
:405CC000109901F0E9F9002804D00120C4E701208446EFE701F030FE2D480021416081600599016021888180022D07D3A1798171A17AC171A1890181218A418100211EE025
:405D0000481C19E082008B00A75AE65ABE46BE4211D26F463E80B4461E190296B678BE7001967646E6521719029EBB78B3706646A652019EBE70401CA842E3D3491CA942CB
:405D4000DED3134822460C3000906846037B0799069800F015F90028B8D168460B4C007B60700B480C3001F017FE0028AED1084907480C3107F012FD0028A7D107F02CFD9B
:405D80000028A3D10121217066E700003C0C002020100020F8B5054633480E460078002802D002242046F8BD002E5BD000242F49002D16D02A89D0070DD02868002808D016
:405DC00003881B3BE12B04D24088FB2801D81B2801D2012409E0900707D56868002804D1F7E70020088108604860002CDAD11F482F8907811C481B21801D018041800421FF
:405E0000017119490020891C0870F80705D016480622801D2968FFF77AFE1449B80703D56A681148127882700F480D46801D0860001F486001F0F6FD0B48801D01F0E4FDA4
:405E400028890DF0F9FD28890DF02EFF03461033FFF794FE1F21C018890140180249308088809FE701249DE73C0C00202C100020FFB58446384F1C460020BB883F780546D3
:405E800002460646002F11D100290ED0029999420BD36146002908D0002C06D00A99002906D02E4B0B99994202D2012004B0F0BD002144E0AB001F19BF78002F3BD0E35A72
:405EC000002B38D07B43591889B22B0000F04AF8050410161C253100A7782388BC46FF27233BEB37BB4222D26346032B1FD322E0A388002B1FD0302B19D31CE02389002B7A
:405F000019D0282B13D316E0A289002A13D01346134F233BBB420AD20DE0268A002A0AD033460F4F233BBB4201D2964203D901200EE0002001E000280AD16D1CEDB2099BE6
:405F40009D42B7D31C2463435B1802998B42ACD89642AAD8AAE700003C0C002079020000BAFF000030B47446641E2578641CAB4200D21D46635D5B00E31830BC184700002C
:405F8000FFB583B0002469460C801F4606468C80002806D00598002803D004983043800701D0012466E0002FFBD03449049809888842F6D3FDF728FFFDF710FF00F00EFC27
:405FC000002855D100F05EFD002851D12C49084601F096F805042D0C4AD12A480499066081800021C18007810C98007AC00704D0684601F0BAFC040007D10C98007A800730
:4060000003D501A801F0BAFC0446BF1DFEB2002C20D13146059800F05DF804001AD10DF051FE040016D16A461088928808368518144AF1B29088D288AEB29319984207D356
:40604000401B801A80B201F04BFB050007D000E0FF25012400F05AFA002D04D008E0F8B200F01CF9F6E700F07DFA07490120087000F0C6FB204607B0F0BD0000400C0020CD
:40608000C161000038100020480C002010B503480078012801D101F0C5F910BD480C002070B5084B0446DA889E8800205518B54206D81D68AA182260DA885118D98070BDA9
:4060C000032070BD38100020014800897047000038100020F0B587B007460D4600208900009006916846FFF7DBFF844600285DD1304800990160002117E02E4B88001A6800
:406100000629115406D22C4C0419667882185670628805E0C419203CA67A8218567022891B68C018491C4280C9B2A942E5D300242DE0601CC2B2059025E01E4FA3003968E1
:406140009600581840887118039604904E88B04217D938466F46FE80B6464F786E4677710297049F4F800168039F5E18767879184E700168764659184E800068029F18186D
:406180004770521CD2B2AA42D7D30598C4B2AC42CFD36046002809D168460699FFF780FF8446002802D1054900980860604607B0F0BD00004C0C0020F87B0100500C00200E
:4061C0007047000010B5002809D005494A68002A05D0011F08788000105801F02FFA10BD4C0C002010B50446FFF76EFFC0B2801DA0420CD307484068002808D0A1004058CA
:4062000001F08EF9002801D00470001D10BD002010BD00004C0C0020F8B516460D460446FFF752FFC0B2801DA04203D20020C0430090F8BDB2B2E9B2684601F097F9009948
:40624000481C03D0024AA000526811500098F8BD4C0C0020F8B50746FFF736FF801DC6B20A49002005460C680DE06178002907D06188B94202D32078FFF7B4FF002804D1F2
:40628000241D6D1CEDB2B542EFD3F8BD4C0C002010B5002801D0FFF795FF10BD70B506460948002504680BE06178002905D062882078121D0023FFF7AFFF241D6D1CEDB284
:4062C000B542F1D370BD00004C0C0020FFB581B00A9C16002BD000F0EFF80546042826D0214F002C0BD02046FFF7B4FF2901C919486000281BD022460499FFF708FC1A49AF
:4063000028010E5046187481019805707D20029CC000444300F0BEF8074604280AD000F053FAA0420ED800F04FFA201A06E0FF2005B0F0BD204600F0ABFA0020F060357209
:406340000020F5E700F040FA009000F0B7FA00980121001B009000F0EDF803493A0151180098C860E6E7000044100020F8B5060116483418217A042903D0E068002802D060
:4063800017E00020F8BD00F01FFA054600F096FA00F0A0F804280CD001010C480F18F8680021451900F0C6F80020F860284600F06FFA6068054D002801D0FFF769FF0420CF
:4063C00020720020A8516081E060DAE744100020FEB500266A46304601232549050169180D7A042D02D0C96800291BD000211154401CC0B20428F0D300246846005D00281B
:4064000030D01B48210108184189476805680291002101604160042241810272C160002E02D015E01354E3E700F054F804280ED001010F4808180190C6680021304600F073
:4064400079F801980021C160304600F021FA0126002D07D038460299A847002F02D03846FFF716FF641CE4B2042CC6D3FEBD0000441000200EB5002005216A4600901181A9
:4064800050810348694600680EF091FA0EBD0000540C0020074A0020010189180B7A042B02D0C968002903D0401CC0B20428F3D37047000044100020054900200201521848
:4064C000127A042A03D0401CC0B20428F6D370474410002030B50A4B04200A4C00210A011219157A042D06D0D268002A03D09A4201D808461346491CC9B20429EFD330BD31
:40650000FFFF0000441000207047000030B50020074C05460423020111190B72A5504D60401C4D81C0B2CD600428F4D330BD00004410002030B5094C00231A011219157ACD
:40654000042D04D0D568002906D02D18D5605B1CDBB2042BF1D330BD2D1AF7E744100020002070471CB5002469460C70142001902346054A05480EF01FFA04480068401CFB
:4065800000D1FF2420461CBDE1650000540C00203EB5124A0146FF2000230124126800290DD0012914D0042908D104206946009308814B8110460EF0FAF980B23EBD684674
:4065C000009304814381694610460EF0EBF9F4E768460093048143816946EBE7540C002070B545890468416800890300FFF7BAFC08280509091E22282628002005F06CFEB6
:406600001EE0022908D0C8B22A4621460CF0FCFA2046FFF73DFE13E002202A4621460CF0F3FA2946204600F00DF809E000200DF0ADFE05E02046FFF7CBFE01E0FDF762FCF2
:40664000002070BD014B0022DB681847580C002070B5448905680089022803D0032809D0FF2070BD2246094C0023A46829460120A04708E0FFF7AEFA241DA2B200232946F4
:40668000022006F054FF002070BD0000580C002070470000024800214160018041807047580C002070B50C46002186B016460391012802D0022859D116E003A9012006F098
:4066C0007EFF01281BD1039D324621462846FFF71EFA0095287801900220694608814E816846FFF7B5FF41E0214D002B686809D0049004A9022006F062FF01281DD0022071
:4067000006B070BD002812D0298840182146FFF7FEF928880024801980B228806988091D884206D12C801348FFF792FF03E00320E6E788421AD96C6018E004986860E27870
:40674000A378110219430B4A698000231060E3565360032313815181A1788170E178C1706178417021780170042028800020C7E7580C0020841000203EB515460C46022882
:4067800003D004280CD000203EBD0091019002206946088107484A8100680EF008F907E00CF032FA044B0022DB6829462046984701203EBD540C0020580C0020014AD160D3
:4067C00090607047580C0020034801688068081A0A214843000970479010002010B5FDF703FB482204490548FFF791F903490120C870002010BD0000147C01009414002054
:4068000010B5FDF7E5FA10BD70B5134C2368002B08D0207B1149C20705D04008400020738868A08070BD88680B4AA18880B29268814203D90A4D691A091802E0814202D249
:40684000411A5118A160A080A0689842EAD30EF0CBF800F013F870BD90100020C0102E40FFFF000010B508461946FFF7A7FF10BD704710B5FFF780FF10BD000003480021AA
:40688000016041608160C1607047000090100020024610B5FF20002A0CD0FFF7EFFF064C0321207B0843207310010A21FDF72CFC2060002010BD00009010002000B50448D2
:4068C0000A21806848430209FFF7D8FF104600BD901000200248007B8007C00F704700009010002010B54B490868002802DA4A4B01221A70022290430860484800694549C8
:40690000C00B4031096A0246C907C90F0A4259D0012000F07FFA3F480E216C30FDF766F93E4820218430FDF761F93C4814219C30FDF75CF93948FF21C131A430FDF756F9D3
:406940003648FF212F31B030FDF750F933483449BC30FDF74BF931483249AC30FDF746F930492E48491CB430FDF740F92B482E49B830FDF73BF929482C49CC30FDF736F979
:4069800026482B490830FDF731F924482949A830FDF72CF9214828498830FDF727F91F4826498C30FDF722F91C481921C9029030FDF71CF9FDF728F9FDF730FAC0B2022888
:4069C00012D01FE000290BD0002101420AD0114801216030FDF70AF90120FDF7EDF997E70121F2E7FF2010BD15491648FDF7FEF814481549001DFDF7F9F8124800210830FD
:406A0000FDF7F4F854200449C043891C0870002010BD000000F02E40680C002000002E40320300002F3F00003102000010520000EC160000FA12000031D000003AE30000E4
:406A40009956000080012E40F80F000070B50646581C80B245086D00002408E0304600F0A9F81055000A1119A41C4870A4B2AC42F4D3D80705D0D0182038D15CC47FD454A5
:406A8000C17770BD10B5FF2000F0C4F90F49FF2048700E481021801D41800121417001700A490020C91C4870FFF71CFF04000AD100F010F907210648FDF78AF8044807212F
:406AC0001830FDF785F8204610BD0000680C0020CC112E4070B5002405465B1E0AE0284600F068F8010A161971702D1D1055A41CADB2A4B29C42F2DB9C4203D1284600F01C
:406B000059F8105570BD000070B500210A4D5B1E0AE0541864782602545C344346193480001D891C80B289B29942F2DB994202D1515C4019018070BD00102E40F0B50599CE
:406B4000091FCFB200217E1E0BE0541864782502545C2C43164D45192C80001D891C80B289B2B142F1DBFC0712D01C78515C24020F4A0C4381180C809C785D78001D210299
:406B800080B2294384182180001D80B2D9780CE059781A7809021143054A84182180001DD9789B78090280B2194380180180F0BD00102E40014940180088704700102E4063
:406BC00010B50B490020487000F084F8002000F047F9002000F034F907210648FCF7F8FF044807211830FCF7F3FF002010BD00006B0C0020CC112E4010B50B46062812D0B5
:406C000006DC01280CD0032801D1FFF7D9FF10BD0A28FCD00B28FAD105480078107010BDFFF730FF10BD1146184600F035F910BD6E0C0020F8B5244DAC6A0127A007234E27
:406C4000002816DA307806280ED1286A384328621F480069F903084381B21D481030FCF7C5FF042000F0D6F8174802212830FCF7AFFFE00718D000F0E1FE01280FD10020E6
:406C800000F02EFF062000F0C5F81049FF20C91E48707078002802D1686B384368630A4801212830FCF794FFE0050BD53078042802D1052000F0AEF80348FF210131283063
:406CC000FCF786FFF8BD000040F02E406B0C002000002E4010B503212348FCF787FF0120FDF75CF820483038406A204C80076178800F890001431C480C38FCF777FF607803
:406D0000002808D0401E022181401820FDF7ECFAC000083800E0B82081B21548FCF766FF1348032109021438FCF760FF10481149B830FCF75BFF612189010F48FCF756FFA5
:406D40000D480321001FFCF751FF0C490C48FCF74DFF0B480B496038FCF748FF084801218838FCF743FF10BD70F02E406E0C0020D8102E4090890000041E2E40FF0F00002E
:406D800058122E40209000000849087806280BD148780749002803D1486B400840004863C86A01221043C862704700006B0C002040F02E4001480078704700006B0C0020B1
:406DC00000B50300FFF7CEF8080D050D0B070507090D012000BD032000BD042000BD022000BDFF2000BD0000074A9168D26889B2064B92B2994204D105498A4201D1012158
:406E000000E000210170704780002E4033D000003FE3000010B50446FCF7E0FF072C01D9FF2C01D102480470FCF7D2FF10BD00006B0C00200149487070470000680C0020F8
:406E400010B5064A012805D01921C9021046FCF7CDFE10BD1D21C902F8E7000090002E4010B50A4A141D012808D009491046FCF7BDFE08492046FCF7B9FE10BD04491046C1
:406E8000891CFCF7B3FE0349491DF3E788002E4031D000003AE3000070B50C460546FCF7BDFFC0B202280E49287804D0FF2810D04C280CD810E0FF2809D10A4AD068000431
:406EC000800F032801D0087807E09069000A553803E00878207070BD4F382070087070BD6A0C002000002E40F0B50122002830D000292ED00424420600D0052479234206CC
:406F00005B06D21800D0641C034600221EE00C2516466E43104D00277519AF720E4F002ABB51696007D0661EB24209D10B4E86197606760E05E05E06760E8027BE1B00E032
:406F400080269B198919521C2E81D2B2A242DED300221046F0BD00001C13002079020000074900200C2242435218927A012A05D0401CC0B20628F5D30020704701207047E4
:406F80001C130020F8B50F000446164609D0184D18496868A04202D94018A04201D38E4201D90120F8BD39462046FEF7A1FD00281BD0324639462046FEF7A9FDF0B2002120
:406FC0000C224A43521913895668F718A74208D90127A41B1B1B9772834206DAC01A1469C0B2491CC9B20629EAD30020F8BD00001C1300207902000010B500F05DF80748E0
:40700000054AC16806480C46FEF781FD04492046FFF76AFF10BD000079020000740C0020A0100020002070470020054A002902D0012902D002E0506000E090600020704785
:40704000740C002070B5084C154608460549A26889182A46FEF75BFDA0684019A06028B270BD0000A0100020740C00203EB50A226946FFF7E7FF044606480A22006869463B
:40708000FEF736FD002802D00020C0433EBD20463EBD0000740C0020002802D0044A914201D2FF20704703490A61C8600020704779020000740C002002480021416081600D
:4070C00070470000740C002070B5074C15460548626880182A46FFF755FF60684019606028B270BDA0100020740C002010B503490A220968FFF7E8FF10BD0000740C0020AD
:4071000010B50F4A002313600E4A13600E4B18600E4801600E49012008600E490860000290600E490C4808600D4914300860FF381538506000F0BCF800F0CAF9002010BD2A
:40714000A00C0020880C0020B40C0020B80C0020A40C0020940C002064140020980C0020AC0C0020014610B50020002910D0094B1A689C685118A14209D258681960801800
:407180008A0704D08A07920F891A091D196010BD002010BD880C0020F8B50024164E671E321F3D463168136806E01422624310328A58521C1BD0641C9C42F6D36A1C14D017
:4071C0002C461422544322460C3288500C214843FFF7C8FF3168002808510AD031680020103408517068401C70602846F8BD2546E4E73846F8BD0000980C0020F3B50026F1
:40720000F64381B000281BDB1E490968884217D80299002914D01B4F142204463F1D54432546396810354859401C09D0FCF7D6FD38682F1F4159C359994203DBFCF7C8FDAE
