:100000000C9434000C9449000C9449000C94490061
:100010000C9449000C9449000C9449000C9449003C
:100020000C9449000C9449000C9449000C9449002C
:100030000C9449000C9449000C9449000C9449001C
:100040000C9449000C9449000C9449000C9449000C
:100050000C9449000C9449000C9449000C944900FC
:100060000C9449000C94490011241FBECFEFD8E036
:10007000DEBFCDBF11E0A0E0B1E0E2E8F4E102C0F4
:1000800005900D92A031B107D9F70E94FD050C949F
:100090003F0A0C940000EF92FF920F931F937B0195
:1000A0008C0120E030E040E05FE40E944B038823B5
:1000B0008CF0C801B70120E030E040E05FE40E942E
:1000C000C3010E94AB039B01AC0120503040404073
:1000D000504806C0C801B7010E94AB039B01AC01A8
:1000E000B901CA011F910F91FF90EF900895A0E010
:1000F000B0E0EDE7F0E00C946707DC012B01FA01BA
:100100009C91923008F439C1EB018881823008F467
:1001100033C1943069F4843009F02FC111969C9159
:1001200011978981981709F428C1A7E0B1E025C18A
:10013000843009F421C18230A9F4923009F01DC144
:100140009A01AD0188E0EA010990AE01E901099246
:100150009E018150C1F7E201898111969C9189230A
:10016000818308C1923009F407C112962D903C900A
:100170001397EB018A819B811496AD90BD90CD9031
:10018000DC901797EC80FD800E811F819101281B68
:10019000390BB90137FF04C066277727621B730B41
:1001A000603271050CF061C0121613066CF5370150
:1001B0004801062E04C096948794779467940A9415
:1001C000D2F721E030E040E050E004C0220F331FBE
:1001D000441F551F6A95D2F721503040404050408F
:1001E0002E213F2140235123211531054105510581
:1001F00021F021E030E040E050E079018A01E6287A
:10020000F728082919293CC0232BD1F1260E371EC7
:1002100035014601062E04C096948794779467941E
:100220000A94D2F721E030E040E050E004C0220F11
:10023000331F441F551F6A95D2F72150304040406C
:1002400050402A213B214C215D21211531054105DA
:10025000510521F021E030E040E050E059016A0111
:10026000A628B728C828D9280BC0821593052CF0DA
:100270001C01AA24BB24650103C0EE24FF248701CE
:1002800011969C91D20111968C91981709F445C052
:10029000992339F0A80197012A193B094C095D09F6
:1002A00006C0A60195012E193F09400B510B57FDC1
:1002B00008C0118233822282248335834683578388
:1002C0001DC081E081833382228288279927DC0147
:1002D000821B930BA40BB50B84839583A683B783F2
:1002E0000DC0220F331F441F551F248335834683BF
:1002F00057838281938101979383828324813581FF
:1003000046815781DA01C9010197A109B1098F5FBF
:100310009F4FAF4FBF4328F30BC09183338222829C
:10032000EA0CFB1C0C1D1D1DE482F582068317835D
:1003300083E08083248135814681578157FF1AC02D
:10034000C901AA2797FDA095BA2F81709070A0705F
:10035000B0705695479537952795822B932BA42BF4
:10036000B52B84839583A683B7838281938101967D
:1003700093838283DF0101C0D201CD01CDB7DEB707
:10038000E2E10C948307A0E2B0E0E9ECF1E00C9428
:10039000730769837A838B839C832D833E834F838A
:1003A0005887E9E0EE2EF12CEC0EFD1ECE010196F1
:1003B000B7010E94D4048E010F5E1F4FCE01059637
:1003C000B8010E94D4048A8991E089278A8BC701E9
:1003D000B801AE01475E5F4F0E9477000E94FF03A5
:1003E000A096E6E00C948F07A0E2B0E0EAEFF1E01F
:1003F0000C94730769837A838B839C832D833E835C
:100400004F835887F9E0EF2EF12CEC0EFD1ECE0144
:100410000196B7010E94D4048E010F5E1F4FCE01DA
:100420000596B8010E94D404C701B801AE01475E29
:100430005F4F0E9477000E94FF03A096E6E00C94B5
:100440008F07A0E2B0E0E7E2F2E00C94670769836F
:100450007A838B839C832D833E834F835887CE0181
:100460000196BE01675F7F4F0E94D404CE010596BE
:10047000BE016F5E7F4F0E94D4049985923088F050
:1004800089898230C8F0943019F4823051F404C064
:10049000843029F4923081F487E091E0C6C0923034
:1004A00049F420E09A858A89981321E02A87CE01B1
:1004B0000996BBC0823049F420E09A858A89981356
:1004C00021E02A8BCE014196B0C02D843E844F841A
:1004D00058886D887E888F88988CEE24FF24870149
:1004E000AA24BB24650140E050E060E070E0E0E059
:1004F000F0E0C10181709070892BE9F0E60CF71CE7
:10050000081D191D9A01AB012A0D3B1D4C1D5D1DD7
:1005100080E090E0A0E0B0E0E614F70408051905DB
:1005200020F481E090E0A0E0B0E0BA01A901480F1A
:10053000591F6A1F7B1FAA0CBB1CCC1CDD1C97FE1D
:1005400008C081E090E0A0E0B0E0A82AB92ACA2A59
:10055000DB2A3196E032F10549F0660C771C881CE5
:10056000991C5694479437942794C3CFFA85EA8907
:100570002B893C898B859C85280F391F2E5F3F4F27
:1005800017C0CA0181709070892B61F0169507958C
:10059000F794E79480E090E0A0E0B0E8E82AF92A38
:1005A0000A2B1B2B76956795579547952F5F3F4FE5
:1005B00077FDE7CF0CC0440F551F661F771F17FD4F
:1005C0004160EE0CFF1C001F111F215030404030D5
:1005D00090E0590790E0690790E4790760F32B8F6A
:1005E0003C8FDB01CA018F779070A070B0708034AF
:1005F0009105A105B10561F447FD0AC0E114F104BC
:100600000105110529F0405C5F4F6F4F7F4F407827
:100610001A8EFE1711F081E08A8F4D8F5E8F6F8FDB
:1006200078A383E0898FCE0149960E94FF03A096AC
:10063000E2E10C948307A8E1B0E0E1E2F3E00C947E
:10064000730769837A838B839C832D833E834F83D7
:10065000588789E0E82EF12CEC0EFD1ECE010196A4
:10066000B7010E94D4048E010F5E1F4FCE01059684
:10067000B8010E94D4048985823040F08989823093
:1006800028F0C701B8010E944C0501C08FEF6896A1
:10069000E6E00C948F07A8E1B0E0E1E5F3E00C940C
:1006A000730769837A838B839C832D833E834F8377
:1006B000588789E0E82EF12CEC0EFD1ECE01019644
:1006C000B7010E94D4048E010F5E1F4FCE01059624
:1006D000B8010E94D4048985823040F08989823033
:1006E00028F0C701B8010E944C0501C08FEF689641
:1006F000E6E00C948F07A8E1B0E0E1E8F3E00C94A9
:10070000730769837A838B839C832D833E834F8316
:10071000588789E0E82EF12CEC0EFD1ECE010196E3
:10072000B7010E94D4048E010F5E1F4FCE010596C3
:10073000B8010E94D4048985823040F089898230D2
:1007400028F0C701B8010E944C0501C081E06896FD
:10075000E6E00C948F07ACE0B0E0E1EBF3E00C9442
:10076000770769837A838B839C83CE010196BE01D0
:100770006B5F7F4F0E94D4048D81823061F18230A3
:1007800050F1843021F48E81882351F12EC02F81C5
:10079000388537FD20C06E812F3131051CF066236E
:1007A000F9F023C08EE190E0821B930B29853A85F6
:1007B0004B855C8504C056954795379527958A9556
:1007C000D2F76623B1F050954095309521953F4F73
:1007D0004F4F5F4F0EC020E030E040E050E009C0D6
:1007E0002FEF3FEF4FEF5FE704C020E030E040E045
:1007F00050E8B901CA012C96E2E00C949307DF920D
:10080000EF92FF920F931F93FC01E480F580068125
:100810001781D1808081823048F480E090E0A0E1AF
:10082000B0E0E82AF92A0A2B1B2BA5C0843009F472
:100830009FC0823021F4EE24FF24870105C0E1141B
:10084000F1040105110519F4E0E0F0E096C06281C1
:1008500073819FEF623879070CF05BC022E83FEFAD
:10086000261B370B2A3131052CF020E030E040E028
:1008700050E02AC0B801A701022E04C07695679502
:10088000579547950A94D2F781E090E0A0E0B0E058
:1008900004C0880F991FAA1FBB1F2A95D2F7019782
:1008A000A109B1098E219F21A023B1230097A105A1
:1008B000B10521F081E090E0A0E0B0E09A01AB0149
:1008C000282B392B4A2B5B2BDA01C9018F779070CB
:1008D000A070B07080349105A105B10539F427FFEF
:1008E00009C0205C3F4F4F4F5F4F04C0215C3F4F1A
:1008F0004F4F5F4FE0E0F0E02030A0E03A07A0E08B
:100900004A07A0E45A0710F0E1E0F0E079018A011B
:1009100027C06038710564F5FB01E158FF4FD8012D
:10092000C7018F779070A070B07080349105A105D9
:10093000B10539F4E7FE0DC080E490E0A0E0B0E03E
:1009400004C08FE390E0A0E0B0E0E80EF91E0A1FBB
:100950001B1F17FF05C016950795F794E79431966E
:1009600087E016950795F794E7948A95D1F705C027
:10097000EE24FF248701EFEFF0E06E2F67956627E6
:100980006795902F9F77D794DD24D7948E2F8695E7
:10099000492F462B582F5D29B701CA011F910F918E
:1009A000FF90EF90DF900895FC01DB0140815181C1
:1009B0002281622F6F7770E0221F2227221F9381EE
:1009C000892F880F822B282F30E0991F9927991F94
:1009D00011969C93119721153105A9F541155105E3
:1009E0006105710511F482E037C082E89FEF13962C
:1009F0009C938E9312979A01AB0167E0220F331FED
:100A0000441F551F6A95D1F783E08C930DC0220FC8
:100A1000331F441F551F12968D919C911397019778
:100A200013969C938E931297203080E0380780E0D5
:100A3000480780E4580758F314962D933D934D933F
:100A40005C93179708952F3F310579F441155105AF
:100A50006105710519F484E08C93089564FF03C067
:100A600081E08C9312C01C9210C02F573040139617
:100A70003C932E93129783E08C9387E0440F551F8D
:100A8000661F771F8A95D1F7706414964D935D9316
:100A90006D937C93179708951F93DC01FB019C9144
:100AA000923008F447C08081823008F443C094300B
:100AB00051F411961C91843099F58181682F70E072
:100AC000611B71093FC0843021F0923031F48230D3
:100AD000B9F18181882389F12DC011961C9111975C
:100AE0008230F1F081811817D9F412962D913C9142
:100AF0001397828193818217930794F028173907FF
:100B0000BCF014968D919D910D90BC91A02D2481E7
:100B1000358146815781281739074A075B0718F442
:100B2000112341F00AC082179307A407B50740F4C8
:100B3000112319F061E070E005C06FEF7FEF02C094
:100B400060E070E0CB011F910895DF93CF93CDB7A4
:100B5000DEB7E5ECF0E01082E4ECF0E085E08083C5
:100B6000E1ECF0E088E18083E2ECF0E086E0808375
:100B7000CF91DF910895DF93CF93CDB7DEB7E0EC4F
:100B8000F0E080818823DCF7E6ECF0E08081CF9113
:100B9000DF910895DF93CF930F92CDB7DEB78983AE
:100BA000E0ECF0E08081882F90E0807290700097F8
:100BB000B9F3E6ECF0E0898180830F90CF91DF916B
:100BC0000895DF93CF9300D0CDB7DEB79A838983A2
:100BD0000AC0E981FA8180810E94CA0589819A81CF
:100BE00001969A838983E981FA818081882389F734
:100BF0000F900F90CF91DF910895DF93CF93CDB7F2
:100C0000DEB7CE51D1400FB6F894DEBF0FBECDBFD8
:100C10000E94A5050E9435071E8E1D8EE5E2F0E0BC
:100C200081E0808380E090E0A8ECB2E4898F9A8F25
:100C3000AB8FBC8F698D7A8D8B8D9C8D20E030E0E1
:100C40004AE755E40E942102DC01CB018D8B9E8B8B
:100C5000AF8BB88F6D897E898F89988D20E030E0C9
:100C600040E85FE30E947B0388232CF481E090E05E
:100C70009C8B8B8B3FC06D897E898F89988D20E0FE
:100C80003FEF4FE757E40E941B0318164CF5698DA0
:100C90007A8D8B8D9C8D20E030E040E251E40E9403
:100CA0002102DC01CB01BC01CD010E944B00DC0123
:100CB000CB019C8B8B8B0FC080E991E09A8B898B49
:100CC00089899A890197F1F79A8B898B8B899C89FD
:100CD00001979C8B8B8B8B899C89009769F714C03B
:100CE0006D897E898F89988D0E944B00DC01CB0134
:100CF0009C8B8B8B8B899C89988B8F878F85988910
:100D00000197F1F7988B8F878D8D9E8D8536910594
:100D100014F01E8E1D8E8D8D9E8D23E030E0B90166
:100D20000E9440079C018DB79EB708970FB6F894B4
:100D30009EBF0FBE8DBFEDB7FEB73196CE014F9669
:100D40009183808380E091E0938382838D8D9E8D5B
:100D500095838483378326830E949E078DB79EB731
:100D600008960FB6F8949EBF0FBE8DBF8D8D9E8DD9
:100D700001969E8F8D8FCE014F960E94E105E5E290
:100D8000F0E0108280E090E0A8ECB2E48B879C87D2
:100D9000AD87BE876B857C858D859E8520E030E0A4
:100DA0004AE755E40E942102DC01CB018F8398873A
:100DB000A987BA876F81788589859A8520E030E098
:100DC00040E85FE30E947B0388232CF481E090E0FD
:100DD0009E838D833FC06F81788589859A8520E0C9
:100DE0003FEF4FE757E40E941B0318164CF56B8545
:100DF0007C858D859E8520E030E040E251E40E94B4
:100E00002102DC01CB01BC01CD010E944B00DC01C1
:100E1000CB019E838D830FC080E991E09C838B83FF
:100E20008B819C810197F1F79C838B838D819E81BF
:100E300001979E838D838D819E81009769F7EECE09
:100E40006F81788589859A850E944B00DC01CB01F2
:100E50009E838D838D819E819A83898389819A81E6
:100E60000197F1F79A838983D9CEDF93CF93CDB7DA
:100E7000DEB7E4E2F0E081E08083CF91DF91089576
:100E800097FB092E07260AD077FD04D00CD006D098
:100E900000201AF4709561957F4F0895F6F79095AC
:100EA00081959F4F0895AA1BBB1B51E107C0AA1F44
:100EB000BB1FA617B70710F0A61BB70B881F991FFB
:100EC0005A95A9F780959095BC01CD0108952F9270
:100ED0003F924F925F926F927F928F929F92AF92CA
:100EE000BF92CF92DF92EF92FF920F931F93CF9317
:100EF000DF93CDB7DEB7CA1BDB0B0FB6F894DEBFAE
:100F00000FBECDBF09942A88398848885F846E84D3
:100F10007D848C849B84AA84B984C884DF80EE801D
:100F2000FD800C811B81AA81B981CE0FD11D0FB626
:100F3000F894DEBF0FBECDBFED010895AEE0B0E086
:100F4000E4EAF7E00C9475070D891E8986E08C832E
:100F50001A8309838FEF9FE79E838D839E01275E0F
:100F60003F4FCE0101966F89788DA9010E94C2077B
:100F70002F813885020F131FF80110822E96E4E0AE
:100F80000C949107ABE0B0E0E8ECF7E00C94670755
:100F90003C012B015A01FC0117821682838181FDDD
:100FA00003C06FEF7FEFC6C19AE0892E1E0108943F
:100FB000211C311CF3012381F20123FD859123FFC4
:100FC00081912F01882309F4B2C1853239F423FDC0
:100FD000859123FF81912F01853229F490E0B3019F
:100FE0000E94B509E7CF982FFF24EE249924FFE152
:100FF000FF15D0F09B3269F09C3228F4903259F002
:10100000933291F40EC09D3249F0903369F441E07F
:1010100024C052E0F52A84E0F82A28C098E0F92A92
:1010200025C0E0E1FE2A22C0F7FC29C0892F8053A9
:101030008A3070F4F6FE05C0989C902C1124980E0E
:1010400015C0E89CE02C1124E80EF0E2FF2A0EC047
:101050009E3229F4F6FC6BC140E4F42A07C09C36AA
:1010600019F450E8F52A02C0983649F4F20123FD3C
:10107000959123FF91912F01992309F0B8CF892FE2
:101080008554833018F08052833038F444E050E0C7
:10109000A40EB51E5FE359830FC0933631F093372A
:1010A00079F0933509F056C020C0F501808189831D
:1010B00042E050E0A40EB51E610101E010E012C054
:1010C000F501C080D180F6FC03C06FEF7FEF02C056
:1010D000692D70E042E050E0A40EB51EC6010E94EA
:1010E000AA098C015FE7F52214C0F501C080D18008
:1010F000F6FC03C06FEF7FEF02C0692D70E042E0A5
:1011000050E0A40EB51EC6010E949F098C0150E854
:10111000F52AF3FE07C01AC080E290E0B3010E94F6
:10112000B509EA948E2D90E008171907A8F30EC0B0
:10113000F601F7FC8591F7FE81916F0190E0B30114
:101140000E94B509E110EA94015010400115110503
:1011500079F7EAC0943611F0993669F5F7FE08C0C0
:10116000F501208131814281538184E090E00AC001
:10117000F501808191819C01442737FD4095542FD2
:1011800082E090E0A80EB91E9FE6F92257FF09C041
:1011900050954095309521953F4F4F4F5F4FE0E878
:1011A000FE2ACA01B901A1012AE030E00E94E1094A
:1011B000D82ED21840C0953729F41F2D1F7E2AE063
:1011C00030E01DC01F2D197F9F3661F0903720F44D
:1011D000983509F0ACC00FC0903739F0983709F056
:1011E000A6C004C028E030E00AC0106114FD1460FD
:1011F00020E130E004C014FD166020E132E017FF6A
:1012000008C0F501608171818281938144E050E0E2
:1012100008C0F50180819181BC0180E090E042E04E
:1012200050E0A40EB51EA1010E94E109D82ED218EB
:101230008FE7F82EF122F6FE0BC05EEFF522D914EF
:1012400038F4F4FE07C0F2FC05C08FEEF82202C0AD
:101250001D2D01C0192DF4FE0DC0FE01ED0DF11D77
:101260008081803319F499EEF92208C01F5FF2FEE5
:1012700005C003C08F2D867809F01F5F0F2DF3FC8A
:1012800014C0F0FE0FC01E1510F09D2C0BC09D2C3D
:101290009E0C911A1E2D06C080E290E0B3010E94C0
:1012A000B5091F5F1E15C0F304C01E1510F4E11A26
:1012B00001C0EE2404FF0FC080E390E0B3010E9460
:1012C000B50902FF1DC001FD03C088E790E00EC014
:1012D00088E590E00BC0802F867891F001FF02C076
:1012E0008BE201C080E2F7FC8DE290E0B3010E9446
:1012F000B50906C080E390E0B3010E94B5099A9455
:10130000D914C0F3DA94F101ED0DF11D808190E064
:10131000B3010E94B509DD20A9F706C080E290E084
:10132000B3010E94B509EA94EE20C1F743CEF30160
:1013300066817781CB012B96E2E10C948307FC0157
:101340000590615070400110D8F7809590958E0FF0
:101350009F1F0895FC016150704001900110D8F763
:10136000809590958E0F9F1F08950F931F93CF9395
:10137000DF938C01EB018B8181FF1BC082FF0DC0CD
:101380002E813F818C819D812817390764F4E88183
:10139000F9810193F983E88306C0E885F985802FF8
:1013A0000995892B31F48E819F8101969F838E83CD
:1013B00002C00FEF1FEFC801DF91CF911F910F9176
:1013C0000895FA01AA27283051F1203181F1E894DB
:1013D0006F936E7F6E5F7F4F8F4F9F4FAF4FB1E028
:1013E0003ED0B4E03CD0670F781F891F9A1FA11D23
:1013F000680F791F8A1F911DA11D6A0F711D811D24
:10140000911DA11D20D009F468943F912AE0269FE8
:1014100011243019305D3193DEF6CF010895462F47
:101420004770405D4193B3E00FD0C9F7F6CF462F28
:101430004F70405D4A3318F0495D31FD4052419391
:1014400002D0A9F7EACFB4E0A6959795879577954E
:101450006795BA95C9F700976105710508959B01D5
:10146000AC010A2E06945795479537952795BA955E
:10147000C9F7620F731F841F951FA01D0895F8946C
:02148000FFCF9C
:1014820025640925640A0000000000000000000035
:00000001FF
